{
  "contractName": "DrugSupplyChain",
  "abi": [
    {
      "constant": false,
      "inputs": [],
      "name": "renounceOwnership",
      "outputs": [],
      "payable": false,
      "stateMutability": "nonpayable",
      "type": "function"
    },
    {
      "constant": true,
      "inputs": [],
      "name": "owner",
      "outputs": [
        {
          "name": "",
          "type": "address"
        }
      ],
      "payable": false,
      "stateMutability": "view",
      "type": "function"
    },
    {
      "constant": false,
      "inputs": [
        {
          "name": "newOwner",
          "type": "address"
        }
      ],
      "name": "transferOwnership",
      "outputs": [],
      "payable": false,
      "stateMutability": "nonpayable",
      "type": "function"
    },
    {
      "inputs": [
        {
          "name": "_supplyChainAddress",
          "type": "address"
        }
      ],
      "payable": false,
      "stateMutability": "nonpayable",
      "type": "constructor"
    },
    {
      "anonymous": false,
      "inputs": [
        {
          "indexed": true,
          "name": "user",
          "type": "address"
        },
        {
          "indexed": true,
          "name": "batchNo",
          "type": "address"
        }
      ],
      "name": "InitialBatch",
      "type": "event"
    },
    {
      "anonymous": false,
      "inputs": [
        {
          "indexed": true,
          "name": "user",
          "type": "address"
        },
        {
          "indexed": true,
          "name": "batchNo",
          "type": "address"
        }
      ],
      "name": "DoneSupplier",
      "type": "event"
    },
    {
      "anonymous": false,
      "inputs": [
        {
          "indexed": true,
          "name": "user",
          "type": "address"
        },
        {
          "indexed": true,
          "name": "batchNo",
          "type": "address"
        }
      ],
      "name": "DoneFactoryIn",
      "type": "event"
    },
    {
      "anonymous": false,
      "inputs": [
        {
          "indexed": true,
          "name": "user",
          "type": "address"
        },
        {
          "indexed": true,
          "name": "batchNo",
          "type": "address"
        }
      ],
      "name": "DoneFactorySend",
      "type": "event"
    },
    {
      "anonymous": false,
      "inputs": [
        {
          "indexed": true,
          "name": "user",
          "type": "address"
        },
        {
          "indexed": true,
          "name": "batchNo",
          "type": "address"
        }
      ],
      "name": "DoneDistributorIn",
      "type": "event"
    },
    {
      "anonymous": false,
      "inputs": [
        {
          "indexed": true,
          "name": "user",
          "type": "address"
        },
        {
          "indexed": true,
          "name": "batchNo",
          "type": "address"
        }
      ],
      "name": "DoneDistributorSend",
      "type": "event"
    },
    {
      "anonymous": false,
      "inputs": [
        {
          "indexed": true,
          "name": "user",
          "type": "address"
        },
        {
          "indexed": true,
          "name": "batchNo",
          "type": "address"
        }
      ],
      "name": "DoneDrugStore",
      "type": "event"
    },
    {
      "anonymous": false,
      "inputs": [
        {
          "indexed": true,
          "name": "previousOwner",
          "type": "address"
        }
      ],
      "name": "OwnershipRenounced",
      "type": "event"
    },
    {
      "anonymous": false,
      "inputs": [
        {
          "indexed": true,
          "name": "previousOwner",
          "type": "address"
        },
        {
          "indexed": true,
          "name": "newOwner",
          "type": "address"
        }
      ],
      "name": "OwnershipTransferred",
      "type": "event"
    },
    {
      "constant": true,
      "inputs": [
        {
          "name": "_batchNo",
          "type": "address"
        }
      ],
      "name": "getNextAction",
      "outputs": [
        {
          "name": "action",
          "type": "string"
        }
      ],
      "payable": false,
      "stateMutability": "view",
      "type": "function"
    },
    {
      "constant": false,
      "inputs": [
        {
          "name": "_registrationNo",
          "type": "string"
        },
        {
          "name": "_drugName",
          "type": "string"
        }
      ],
      "name": "addBasicDetails",
      "outputs": [
        {
          "name": "",
          "type": "address"
        }
      ],
      "payable": false,
      "stateMutability": "nonpayable",
      "type": "function"
    },
    {
      "constant": true,
      "inputs": [
        {
          "name": "_batchNo",
          "type": "address"
        }
      ],
      "name": "getBasicDetails",
      "outputs": [
        {
          "name": "registrationNo",
          "type": "string"
        },
        {
          "name": "drugName",
          "type": "string"
        }
      ],
      "payable": false,
      "stateMutability": "view",
      "type": "function"
    },
    {
      "constant": false,
      "inputs": [
        {
          "name": "_batchNo",
          "type": "address"
        },
        {
          "name": "_sendDate",
          "type": "string"
        },
        {
          "name": "_factoryName",
          "type": "string"
        },
        {
          "name": "_itemName",
          "type": "string"
        },
        {
          "name": "_quantity",
          "type": "uint32"
        }
      ],
      "name": "updateSupplierData",
      "outputs": [
        {
          "name": "",
          "type": "bool"
        }
      ],
      "payable": false,
      "stateMutability": "nonpayable",
      "type": "function"
    },
    {
      "constant": true,
      "inputs": [
        {
          "name": "_batchNo",
          "type": "address"
        }
      ],
      "name": "getSupplierData",
      "outputs": [
        {
          "name": "sendDate",
          "type": "string"
        },
        {
          "name": "factoryName",
          "type": "string"
        },
        {
          "name": "itemName",
          "type": "string"
        },
        {
          "name": "quantity",
          "type": "uint32"
        }
      ],
      "payable": false,
      "stateMutability": "view",
      "type": "function"
    },
    {
      "constant": false,
      "inputs": [
        {
          "name": "_batchNo",
          "type": "address"
        },
        {
          "name": "_receiveDate",
          "type": "string"
        },
        {
          "name": "_itemName",
          "type": "string"
        },
        {
          "name": "_quantity",
          "type": "uint32"
        }
      ],
      "name": "updateFactoryInData",
      "outputs": [
        {
          "name": "",
          "type": "bool"
        }
      ],
      "payable": false,
      "stateMutability": "nonpayable",
      "type": "function"
    },
    {
      "constant": true,
      "inputs": [
        {
          "name": "_batchNo",
          "type": "address"
        }
      ],
      "name": "getFactoryInData",
      "outputs": [
        {
          "name": "receiveDate",
          "type": "string"
        },
        {
          "name": "itemName",
          "type": "string"
        },
        {
          "name": "quantity",
          "type": "uint32"
        }
      ],
      "payable": false,
      "stateMutability": "view",
      "type": "function"
    },
    {
      "constant": false,
      "inputs": [
        {
          "name": "_batchNo",
          "type": "address"
        },
        {
          "name": "_sendDate",
          "type": "string"
        },
        {
          "name": "_drugName",
          "type": "string"
        },
        {
          "name": "_productionNumber",
          "type": "string"
        },
        {
          "name": "_productionDate",
          "type": "string"
        },
        {
          "name": "_expiredDate",
          "type": "string"
        },
        {
          "name": "_quantity",
          "type": "uint32"
        }
      ],
      "name": "updateFactorySendData",
      "outputs": [
        {
          "name": "",
          "type": "bool"
        }
      ],
      "payable": false,
      "stateMutability": "nonpayable",
      "type": "function"
    },
    {
      "constant": true,
      "inputs": [
        {
          "name": "_batchNo",
          "type": "address"
        }
      ],
      "name": "getFactorySendData",
      "outputs": [
        {
          "name": "sendDate",
          "type": "string"
        },
        {
          "name": "drugName",
          "type": "string"
        },
        {
          "name": "productionNumber",
          "type": "string"
        },
        {
          "name": "productionDate",
          "type": "string"
        },
        {
          "name": "expiredDate",
          "type": "string"
        },
        {
          "name": "quantity",
          "type": "uint32"
        }
      ],
      "payable": false,
      "stateMutability": "view",
      "type": "function"
    },
    {
      "constant": false,
      "inputs": [
        {
          "name": "_batchNo",
          "type": "address"
        },
        {
          "name": "_receiveDate",
          "type": "string"
        },
        {
          "name": "_drugName",
          "type": "string"
        },
        {
          "name": "_quantity",
          "type": "uint32"
        }
      ],
      "name": "updateDistributorInData",
      "outputs": [
        {
          "name": "",
          "type": "bool"
        }
      ],
      "payable": false,
      "stateMutability": "nonpayable",
      "type": "function"
    },
    {
      "constant": true,
      "inputs": [
        {
          "name": "_batchNo",
          "type": "address"
        }
      ],
      "name": "getDistributorInData",
      "outputs": [
        {
          "name": "receiveDate",
          "type": "string"
        },
        {
          "name": "drugName",
          "type": "string"
        },
        {
          "name": "quantity",
          "type": "uint32"
        }
      ],
      "payable": false,
      "stateMutability": "view",
      "type": "function"
    },
    {
      "constant": false,
      "inputs": [
        {
          "name": "_batchNo",
          "type": "address"
        },
        {
          "name": "_sendDate",
          "type": "string"
        },
        {
          "name": "_drugStoreName",
          "type": "string"
        },
        {
          "name": "_quantity",
          "type": "uint32"
        }
      ],
      "name": "updateDistributorSendData",
      "outputs": [
        {
          "name": "",
          "type": "bool"
        }
      ],
      "payable": false,
      "stateMutability": "nonpayable",
      "type": "function"
    },
    {
      "constant": true,
      "inputs": [
        {
          "name": "_batchNo",
          "type": "address"
        }
      ],
      "name": "getDistributorSendData",
      "outputs": [
        {
          "name": "sendDate",
          "type": "string"
        },
        {
          "name": "drugStoreName",
          "type": "string"
        },
        {
          "name": "quantity",
          "type": "uint32"
        }
      ],
      "payable": false,
      "stateMutability": "view",
      "type": "function"
    },
    {
      "constant": false,
      "inputs": [
        {
          "name": "_batchNo",
          "type": "address"
        },
        {
          "name": "_receiveDate",
          "type": "string"
        },
        {
          "name": "_quantity",
          "type": "uint32"
        },
        {
          "name": "_additionalInfo",
          "type": "string"
        }
      ],
      "name": "updateDrugStoreData",
      "outputs": [
        {
          "name": "",
          "type": "bool"
        }
      ],
      "payable": false,
      "stateMutability": "nonpayable",
      "type": "function"
    },
    {
      "constant": true,
      "inputs": [
        {
          "name": "_batchNo",
          "type": "address"
        }
      ],
      "name": "getDrugStoreData",
      "outputs": [
        {
          "name": "receiveDate",
          "type": "string"
        },
        {
          "name": "quantity",
          "type": "uint32"
        },
        {
          "name": "additionalInfo",
          "type": "string"
        }
      ],
      "payable": false,
      "stateMutability": "view",
      "type": "function"
    }
  ],
  "bytecode": "0x608060405234801561001057600080fd5b5060405160208061558783398101806040528101908080519060200190929190505050336000806101000a81548173ffffffffffffffffffffffffffffffffffffffff021916908373ffffffffffffffffffffffffffffffffffffffff16021790555080600160006101000a81548173ffffffffffffffffffffffffffffffffffffffff021916908373ffffffffffffffffffffffffffffffffffffffff160217905550506154c3806100c46000396000f3006080604052600436106100fc576000357c0100000000000000000000000000000000000000000000000000000000900463ffffffff16806306988fdf146101015780631e84df261461023c57806329707194146103775780634a5d7e101461046e5780634d6b5e00146106375780635925a9d4146106f357806365d83ef3146107ea578063678b717714610927578063715018a614610a1e57806381aed62a14610a355780638da5cb5b14610b70578063aca3974f14610bc7578063baad1ca414610d02578063c682160b14610df9578063d7d0eb8714610ee8578063e48fca811461108f578063f2997d761461130e578063f2fde38b14611436575b600080fd5b34801561010d57600080fd5b50610142600480360381019080803573ffffffffffffffffffffffffffffffffffffffff169060200190929190505050611479565b60405180806020018463ffffffff1663ffffffff16815260200180602001838103835286818151815260200191508051906020019080838360005b8381101561019857808201518184015260208101905061017d565b50505050905090810190601f1680156101c55780820380516001836020036101000a031916815260200191505b50838103825284818151815260200191508051906020019080838360005b838110156101fe5780820151818401526020810190506101e3565b50505050905090810190601f16801561022b5780820380516001836020036101000a031916815260200191505b509550505050505060405180910390f35b34801561024857600080fd5b5061027d600480360381019080803573ffffffffffffffffffffffffffffffffffffffff169060200190929190505050611642565b6040518080602001806020018463ffffffff1663ffffffff168152602001838103835286818151815260200191508051906020019080838360005b838110156102d35780820151818401526020810190506102b8565b50505050905090810190601f1680156103005780820380516001836020036101000a031916815260200191505b50838103825285818151815260200191508051906020019080838360005b8381101561033957808201518184015260208101905061031e565b50505050905090810190601f1680156103665780820380516001836020036101000a031916815260200191505b509550505050505060405180910390f35b34801561038357600080fd5b50610454600480360381019080803573ffffffffffffffffffffffffffffffffffffffff169060200190929190803590602001908201803590602001908080601f0160208091040260200160405190810160405280939291908181526020018383808284378201915050505050509192919290803590602001908201803590602001908080601f0160208091040260200160405190810160405280939291908181526020018383808284378201915050505050509192919290803563ffffffff16906020019092919050505061180d565b604051808215151515815260200191505060405180910390f35b34801561047a57600080fd5b5061061d600480360381019080803573ffffffffffffffffffffffffffffffffffffffff169060200190929190803590602001908201803590602001908080601f0160208091040260200160405190810160405280939291908181526020018383808284378201915050505050509192919290803590602001908201803590602001908080601f0160208091040260200160405190810160405280939291908181526020018383808284378201915050505050509192919290803590602001908201803590602001908080601f0160208091040260200160405190810160405280939291908181526020018383808284378201915050505050509192919290803590602001908201803590602001908080601f0160208091040260200160405190810160405280939291908181526020018383808284378201915050505050509192919290803590602001908201803590602001908080601f0160208091040260200160405190810160405280939291908181526020018383808284378201915050505050509192919290803563ffffffff169060200190929190505050611f1c565b604051808215151515815260200191505060405180910390f35b34801561064357600080fd5b50610678600480360381019080803573ffffffffffffffffffffffffffffffffffffffff169060200190929190505050612775565b6040518080602001828103825283818151815260200191508051906020019080838360005b838110156106b857808201518184015260208101905061069d565b50505050905090810190601f1680156106e55780820380516001836020036101000a031916815260200191505b509250505060405180910390f35b3480156106ff57600080fd5b506107d0600480360381019080803573ffffffffffffffffffffffffffffffffffffffff169060200190929190803590602001908201803590602001908080601f0160208091040260200160405190810160405280939291908181526020018383808284378201915050505050509192919290803563ffffffff169060200190929190803590602001908201803590602001908080601f01602080910402602001604051908101604052809392919081815260200183838082843782019150505050505091929192905050506128cf565b604051808215151515815260200191505060405180910390f35b3480156107f657600080fd5b5061090d600480360381019080803573ffffffffffffffffffffffffffffffffffffffff169060200190929190803590602001908201803590602001908080601f0160208091040260200160405190810160405280939291908181526020018383808284378201915050505050509192919290803590602001908201803590602001908080601f0160208091040260200160405190810160405280939291908181526020018383808284378201915050505050509192919290803590602001908201803590602001908080601f0160208091040260200160405190810160405280939291908181526020018383808284378201915050505050509192919290803563ffffffff169060200190929190505050612fde565b604051808215151515815260200191505060405180910390f35b34801561093357600080fd5b50610a04600480360381019080803573ffffffffffffffffffffffffffffffffffffffff169060200190929190803590602001908201803590602001908080601f0160208091040260200160405190810160405280939291908181526020018383808284378201915050505050509192919290803590602001908201803590602001908080601f0160208091040260200160405190810160405280939291908181526020018383808284378201915050505050509192919290803563ffffffff16906020019092919050505061375b565b604051808215151515815260200191505060405180910390f35b348015610a2a57600080fd5b50610a33613e6a565b005b348015610a4157600080fd5b50610a76600480360381019080803573ffffffffffffffffffffffffffffffffffffffff169060200190929190505050613f6c565b6040518080602001806020018463ffffffff1663ffffffff168152602001838103835286818151815260200191508051906020019080838360005b83811015610acc578082015181840152602081019050610ab1565b50505050905090810190601f168015610af95780820380516001836020036101000a031916815260200191505b50838103825285818151815260200191508051906020019080838360005b83811015610b32578082015181840152602081019050610b17565b50505050905090810190601f168015610b5f5780820380516001836020036101000a031916815260200191505b509550505050505060405180910390f35b348015610b7c57600080fd5b50610b85614137565b604051808273ffffffffffffffffffffffffffffffffffffffff1673ffffffffffffffffffffffffffffffffffffffff16815260200191505060405180910390f35b348015610bd357600080fd5b50610c08600480360381019080803573ffffffffffffffffffffffffffffffffffffffff16906020019092919050505061415c565b6040518080602001806020018463ffffffff1663ffffffff168152602001838103835286818151815260200191508051906020019080838360005b83811015610c5e578082015181840152602081019050610c43565b50505050905090810190601f168015610c8b5780820380516001836020036101000a031916815260200191505b50838103825285818151815260200191508051906020019080838360005b83811015610cc4578082015181840152602081019050610ca9565b50505050905090810190601f168015610cf15780820380516001836020036101000a031916815260200191505b509550505050505060405180910390f35b348015610d0e57600080fd5b50610ddf600480360381019080803573ffffffffffffffffffffffffffffffffffffffff169060200190929190803590602001908201803590602001908080601f0160208091040260200160405190810160405280939291908181526020018383808284378201915050505050509192919290803590602001908201803590602001908080601f0160208091040260200160405190810160405280939291908181526020018383808284378201915050505050509192919290803563ffffffff169060200190929190505050614327565b604051808215151515815260200191505060405180910390f35b348015610e0557600080fd5b50610ea6600480360381019080803590602001908201803590602001908080601f0160208091040260200160405190810160405280939291908181526020018383808284378201915050505050509192919290803590602001908201803590602001908080601f0160208091040260200160405190810160405280939291908181526020018383808284378201915050505050509192919290505050614a36565b604051808273ffffffffffffffffffffffffffffffffffffffff1673ffffffffffffffffffffffffffffffffffffffff16815260200191505060405180910390f35b348015610ef457600080fd5b50610f29600480360381019080803573ffffffffffffffffffffffffffffffffffffffff169060200190929190505050614c98565b604051808060200180602001806020018563ffffffff1663ffffffff168152602001848103845288818151815260200191508051906020019080838360005b83811015610f83578082015181840152602081019050610f68565b50505050905090810190601f168015610fb05780820380516001836020036101000a031916815260200191505b50848103835287818151815260200191508051906020019080838360005b83811015610fe9578082015181840152602081019050610fce565b50505050905090810190601f1680156110165780820380516001836020036101000a031916815260200191505b50848103825286818151815260200191508051906020019080838360005b8381101561104f578082015181840152602081019050611034565b50505050905090810190601f16801561107c5780820380516001836020036101000a031916815260200191505b5097505050505050505060405180910390f35b34801561109b57600080fd5b506110d0600480360381019080803573ffffffffffffffffffffffffffffffffffffffff169060200190929190505050614ebb565b6040518080602001806020018060200180602001806020018763ffffffff1663ffffffff16815260200186810386528c818151815260200191508051906020019080838360005b83811015611132578082015181840152602081019050611117565b50505050905090810190601f16801561115f5780820380516001836020036101000a031916815260200191505b5086810385528b818151815260200191508051906020019080838360005b8381101561119857808201518184015260208101905061117d565b50505050905090810190601f1680156111c55780820380516001836020036101000a031916815260200191505b5086810384528a818151815260200191508051906020019080838360005b838110156111fe5780820151818401526020810190506111e3565b50505050905090810190601f16801561122b5780820380516001836020036101000a031916815260200191505b50868103835289818151815260200191508051906020019080838360005b83811015611264578082015181840152602081019050611249565b50505050905090810190601f1680156112915780820380516001836020036101000a031916815260200191505b50868103825288818151815260200191508051906020019080838360005b838110156112ca5780820151818401526020810190506112af565b50505050905090810190601f1680156112f75780820380516001836020036101000a031916815260200191505b509b50505050505050505050505060405180910390f35b34801561131a57600080fd5b5061134f600480360381019080803573ffffffffffffffffffffffffffffffffffffffff16906020019092919050505061518f565b604051808060200180602001838103835285818151815260200191508051906020019080838360005b83811015611393578082015181840152602081019050611378565b50505050905090810190601f1680156113c05780820380516001836020036101000a031916815260200191505b50838103825284818151815260200191508051906020019080838360005b838110156113f95780820151818401526020810190506113de565b50505050905090810190601f1680156114265780820380516001836020036101000a031916815260200191505b5094505050505060405180910390f35b34801561144257600080fd5b50611477600480360381019080803573ffffffffffffffffffffffffffffffffffffffff169060200190929190505050615342565b005b606060006060600160009054906101000a900473ffffffffffffffffffffffffffffffffffffffff1673ffffffffffffffffffffffffffffffffffffffff166306988fdf856040518263ffffffff167c0100000000000000000000000000000000000000000000000000000000028152600401808273ffffffffffffffffffffffffffffffffffffffff1673ffffffffffffffffffffffffffffffffffffffff168152602001915050600060405180830381600087803b15801561153c57600080fd5b505af1158015611550573d6000803e3d6000fd5b505050506040513d6000823e3d601f19601f82011682018060405250606081101561157a57600080fd5b81019080805164010000000081111561159257600080fd5b828101905060208101848111156115a857600080fd5b81518560018202830111640100000000821117156115c557600080fd5b50509291906020018051906020019092919080516401000000008111156115eb57600080fd5b8281019050602081018481111561160157600080fd5b815185600182028301116401000000008211171561161e57600080fd5b50509291905050508093508194508295505050508282829250925092509193909250565b6060806000600160009054906101000a900473ffffffffffffffffffffffffffffffffffffffff1673ffffffffffffffffffffffffffffffffffffffff16631e84df26856040518263ffffffff167c0100000000000000000000000000000000000000000000000000000000028152600401808273ffffffffffffffffffffffffffffffffffffffff1673ffffffffffffffffffffffffffffffffffffffff168152602001915050600060405180830381600087803b15801561170457600080fd5b505af1158015611718573d6000803e3d6000fd5b505050506040513d6000823e3d601f19601f82011682018060405250606081101561174257600080fd5b81019080805164010000000081111561175a57600080fd5b8281019050602081018481111561177057600080fd5b815185600182028301116401000000008211171561178d57600080fd5b505092919060200180516401000000008111156117a957600080fd5b828101905060208101848111156117bf57600080fd5b81518560018202830111640100000000821117156117dc57600080fd5b5050929190602001805190602001909291905050508093508194508295505050508282829250925092509193909250565b600080856040805190810160405280600781526020017f464143544f5259000000000000000000000000000000000000000000000000008152506040805190810160405280600a81526020017f464143544f52595f494e00000000000000000000000000000000000000000000815250816040518082805190602001908083835b6020831015156118b3578051825260208201915060208101905060208303925061188e565b6001836020036101000a038019825116818451168082178552505050505050905001915050604051809103902060001916600160009054906101000a900473ffffffffffffffffffffffffffffffffffffffff1673ffffffffffffffffffffffffffffffffffffffff166327820851336040518263ffffffff167c0100000000000000000000000000000000000000000000000000000000028152600401808273ffffffffffffffffffffffffffffffffffffffff1673ffffffffffffffffffffffffffffffffffffffff168152602001915050600060405180830381600087803b1580156119a157600080fd5b505af11580156119b5573d6000803e3d6000fd5b505050506040513d6000823e3d601f19601f8201168201806040525060208110156119df57600080fd5b8101908080516401000000008111156119f757600080fd5b82810190506020810184811115611a0d57600080fd5b8151856001820283011164010000000082111715611a2a57600080fd5b50509291905050506040518082805190602001908083835b602083101515611a675780518252602082019150602081019050602083039250611a42565b6001836020036101000a038019825116818451168082178552505050505050905001915050604051809103902060001916141515611aa457600080fd5b806040518082805190602001908083835b602083101515611ada5780518252602082019150602081019050602083039250611ab5565b6001836020036101000a038019825116818451168082178552505050505050905001915050604051809103902060001916600160009054906101000a900473ffffffffffffffffffffffffffffffffffffffff1673ffffffffffffffffffffffffffffffffffffffff16634d6b5e00856040518263ffffffff167c0100000000000000000000000000000000000000000000000000000000028152600401808273ffffffffffffffffffffffffffffffffffffffff1673ffffffffffffffffffffffffffffffffffffffff168152602001915050600060405180830381600087803b158015611bc857600080fd5b505af1158015611bdc573d6000803e3d6000fd5b505050506040513d6000823e3d601f19601f820116820180604052506020811015611c0657600080fd5b810190808051640100000000811115611c1e57600080fd5b82810190506020810184811115611c3457600080fd5b8151856001820283011164010000000082111715611c5157600080fd5b50509291905050506040518082805190602001908083835b602083101515611c8e5780518252602082019150602081019050602083039250611c69565b6001836020036101000a038019825116818451168082178552505050505050905001915050604051809103902060001916141515611ccb57600080fd5b600160009054906101000a900473ffffffffffffffffffffffffffffffffffffffff1673ffffffffffffffffffffffffffffffffffffffff1663a49644ef8a8a8a8a6040518563ffffffff167c0100000000000000000000000000000000000000000000000000000000028152600401808573ffffffffffffffffffffffffffffffffffffffff1673ffffffffffffffffffffffffffffffffffffffff16815260200180602001806020018463ffffffff1663ffffffff168152602001838103835286818151815260200191508051906020019080838360005b83811015611dc0578082015181840152602081019050611da5565b50505050905090810190601f168015611ded5780820380516001836020036101000a031916815260200191505b50838103825285818151815260200191508051906020019080838360005b83811015611e26578082015181840152602081019050611e0b565b50505050905090810190601f168015611e535780820380516001836020036101000a031916815260200191505b509650505050505050602060405180830381600087803b158015611e7657600080fd5b505af1158015611e8a573d6000803e3d6000fd5b505050506040513d6020811015611ea057600080fd5b810190808051906020019092919050505093508873ffffffffffffffffffffffffffffffffffffffff163373ffffffffffffffffffffffffffffffffffffffff167fb354f8b3ed8062468f6be327d2e80b01177eba1456ee9df59e471951b408639760405160405180910390a383945050505050949350505050565b600080886040805190810160405280600781526020017f464143544f5259000000000000000000000000000000000000000000000000008152506040805190810160405280600c81526020017f464143544f52595f53454e440000000000000000000000000000000000000000815250816040518082805190602001908083835b602083101515611fc25780518252602082019150602081019050602083039250611f9d565b6001836020036101000a038019825116818451168082178552505050505050905001915050604051809103902060001916600160009054906101000a900473ffffffffffffffffffffffffffffffffffffffff1673ffffffffffffffffffffffffffffffffffffffff166327820851336040518263ffffffff167c0100000000000000000000000000000000000000000000000000000000028152600401808273ffffffffffffffffffffffffffffffffffffffff1673ffffffffffffffffffffffffffffffffffffffff168152602001915050600060405180830381600087803b1580156120b057600080fd5b505af11580156120c4573d6000803e3d6000fd5b505050506040513d6000823e3d601f19601f8201168201806040525060208110156120ee57600080fd5b81019080805164010000000081111561210657600080fd5b8281019050602081018481111561211c57600080fd5b815185600182028301116401000000008211171561213957600080fd5b50509291905050506040518082805190602001908083835b6020831015156121765780518252602082019150602081019050602083039250612151565b6001836020036101000a0380198251168184511680821785525050505050509050019150506040518091039020600019161415156121b357600080fd5b806040518082805190602001908083835b6020831015156121e957805182526020820191506020810190506020830392506121c4565b6001836020036101000a038019825116818451168082178552505050505050905001915050604051809103902060001916600160009054906101000a900473ffffffffffffffffffffffffffffffffffffffff1673ffffffffffffffffffffffffffffffffffffffff16634d6b5e00856040518263ffffffff167c0100000000000000000000000000000000000000000000000000000000028152600401808273ffffffffffffffffffffffffffffffffffffffff1673ffffffffffffffffffffffffffffffffffffffff168152602001915050600060405180830381600087803b1580156122d757600080fd5b505af11580156122eb573d6000803e3d6000fd5b505050506040513d6000823e3d601f19601f82011682018060405250602081101561231557600080fd5b81019080805164010000000081111561232d57600080fd5b8281019050602081018481111561234357600080fd5b815185600182028301116401000000008211171561236057600080fd5b50509291905050506040518082805190602001908083835b60208310151561239d5780518252602082019150602081019050602083039250612378565b6001836020036101000a0380198251168184511680821785525050505050509050019150506040518091039020600019161415156123da57600080fd5b600160009054906101000a900473ffffffffffffffffffffffffffffffffffffffff1673ffffffffffffffffffffffffffffffffffffffff1663e5262cc98d8d8d8d8d8d8d6040518863ffffffff167c0100000000000000000000000000000000000000000000000000000000028152600401808873ffffffffffffffffffffffffffffffffffffffff1673ffffffffffffffffffffffffffffffffffffffff16815260200180602001806020018060200180602001806020018763ffffffff1663ffffffff16815260200186810386528c818151815260200191508051906020019080838360005b838110156124de5780820151818401526020810190506124c3565b50505050905090810190601f16801561250b5780820380516001836020036101000a031916815260200191505b5086810385528b818151815260200191508051906020019080838360005b83811015612544578082015181840152602081019050612529565b50505050905090810190601f1680156125715780820380516001836020036101000a031916815260200191505b5086810384528a818151815260200191508051906020019080838360005b838110156125aa57808201518184015260208101905061258f565b50505050905090810190601f1680156125d75780820380516001836020036101000a031916815260200191505b50868103835289818151815260200191508051906020019080838360005b838110156126105780820151818401526020810190506125f5565b50505050905090810190601f16801561263d5780820380516001836020036101000a031916815260200191505b50868103825288818151815260200191508051906020019080838360005b8381101561267657808201518184015260208101905061265b565b50505050905090810190601f1680156126a35780820380516001836020036101000a031916815260200191505b509c50505050505050505050505050602060405180830381600087803b1580156126cc57600080fd5b505af11580156126e0573d6000803e3d6000fd5b505050506040513d60208110156126f657600080fd5b810190808051906020019092919050505093508b73ffffffffffffffffffffffffffffffffffffffff163373ffffffffffffffffffffffffffffffffffffffff167f34ee6cc7dd576ed8200d28b1ec25b88696ea0fcea4d830bf426b2ce0452ac2ad60405160405180910390a383945050505050979650505050505050565b6060600160009054906101000a900473ffffffffffffffffffffffffffffffffffffffff1673ffffffffffffffffffffffffffffffffffffffff16634d6b5e00836040518263ffffffff167c0100000000000000000000000000000000000000000000000000000000028152600401808273ffffffffffffffffffffffffffffffffffffffff1673ffffffffffffffffffffffffffffffffffffffff168152602001915050600060405180830381600087803b15801561283457600080fd5b505af1158015612848573d6000803e3d6000fd5b505050506040513d6000823e3d601f19601f82011682018060405250602081101561287257600080fd5b81019080805164010000000081111561288a57600080fd5b828101905060208101848111156128a057600080fd5b81518560018202830111640100000000821117156128bd57600080fd5b50509291905050509050809050919050565b600080856040805190810160405280600981526020017f4452554753544f524500000000000000000000000000000000000000000000008152506040805190810160405280600981526020017f4452554753544f52450000000000000000000000000000000000000000000000815250816040518082805190602001908083835b6020831015156129755780518252602082019150602081019050602083039250612950565b6001836020036101000a038019825116818451168082178552505050505050905001915050604051809103902060001916600160009054906101000a900473ffffffffffffffffffffffffffffffffffffffff1673ffffffffffffffffffffffffffffffffffffffff166327820851336040518263ffffffff167c0100000000000000000000000000000000000000000000000000000000028152600401808273ffffffffffffffffffffffffffffffffffffffff1673ffffffffffffffffffffffffffffffffffffffff168152602001915050600060405180830381600087803b158015612a6357600080fd5b505af1158015612a77573d6000803e3d6000fd5b505050506040513d6000823e3d601f19601f820116820180604052506020811015612aa157600080fd5b810190808051640100000000811115612ab957600080fd5b82810190506020810184811115612acf57600080fd5b8151856001820283011164010000000082111715612aec57600080fd5b50509291905050506040518082805190602001908083835b602083101515612b295780518252602082019150602081019050602083039250612b04565b6001836020036101000a038019825116818451168082178552505050505050905001915050604051809103902060001916141515612b6657600080fd5b806040518082805190602001908083835b602083101515612b9c5780518252602082019150602081019050602083039250612b77565b6001836020036101000a038019825116818451168082178552505050505050905001915050604051809103902060001916600160009054906101000a900473ffffffffffffffffffffffffffffffffffffffff1673ffffffffffffffffffffffffffffffffffffffff16634d6b5e00856040518263ffffffff167c0100000000000000000000000000000000000000000000000000000000028152600401808273ffffffffffffffffffffffffffffffffffffffff1673ffffffffffffffffffffffffffffffffffffffff168152602001915050600060405180830381600087803b158015612c8a57600080fd5b505af1158015612c9e573d6000803e3d6000fd5b505050506040513d6000823e3d601f19601f820116820180604052506020811015612cc857600080fd5b810190808051640100000000811115612ce057600080fd5b82810190506020810184811115612cf657600080fd5b8151856001820283011164010000000082111715612d1357600080fd5b50509291905050506040518082805190602001908083835b602083101515612d505780518252602082019150602081019050602083039250612d2b565b6001836020036101000a038019825116818451168082178552505050505050905001915050604051809103902060001916141515612d8d57600080fd5b600160009054906101000a900473ffffffffffffffffffffffffffffffffffffffff1673ffffffffffffffffffffffffffffffffffffffff16633590dbf98a8a8a8a6040518563ffffffff167c0100000000000000000000000000000000000000000000000000000000028152600401808573ffffffffffffffffffffffffffffffffffffffff1673ffffffffffffffffffffffffffffffffffffffff168152602001806020018463ffffffff1663ffffffff16815260200180602001838103835286818151815260200191508051906020019080838360005b83811015612e82578082015181840152602081019050612e67565b50505050905090810190601f168015612eaf5780820380516001836020036101000a031916815260200191505b50838103825284818151815260200191508051906020019080838360005b83811015612ee8578082015181840152602081019050612ecd565b50505050905090810190601f168015612f155780820380516001836020036101000a031916815260200191505b509650505050505050602060405180830381600087803b158015612f3857600080fd5b505af1158015612f4c573d6000803e3d6000fd5b505050506040513d6020811015612f6257600080fd5b810190808051906020019092919050505093508873ffffffffffffffffffffffffffffffffffffffff163373ffffffffffffffffffffffffffffffffffffffff167f34ee6cc7dd576ed8200d28b1ec25b88696ea0fcea4d830bf426b2ce0452ac2ad60405160405180910390a383945050505050949350505050565b600080866040805190810160405280600881526020017f535550504c4945520000000000000000000000000000000000000000000000008152506040805190810160405280600881526020017f535550504c494552000000000000000000000000000000000000000000000000815250816040518082805190602001908083835b602083101515613084578051825260208201915060208101905060208303925061305f565b6001836020036101000a038019825116818451168082178552505050505050905001915050604051809103902060001916600160009054906101000a900473ffffffffffffffffffffffffffffffffffffffff1673ffffffffffffffffffffffffffffffffffffffff166327820851336040518263ffffffff167c0100000000000000000000000000000000000000000000000000000000028152600401808273ffffffffffffffffffffffffffffffffffffffff1673ffffffffffffffffffffffffffffffffffffffff168152602001915050600060405180830381600087803b15801561317257600080fd5b505af1158015613186573d6000803e3d6000fd5b505050506040513d6000823e3d601f19601f8201168201806040525060208110156131b057600080fd5b8101908080516401000000008111156131c857600080fd5b828101905060208101848111156131de57600080fd5b81518560018202830111640100000000821117156131fb57600080fd5b50509291905050506040518082805190602001908083835b6020831015156132385780518252602082019150602081019050602083039250613213565b6001836020036101000a03801982511681845116808217855250505050505090500191505060405180910390206000191614151561327557600080fd5b806040518082805190602001908083835b6020831015156132ab5780518252602082019150602081019050602083039250613286565b6001836020036101000a038019825116818451168082178552505050505050905001915050604051809103902060001916600160009054906101000a900473ffffffffffffffffffffffffffffffffffffffff1673ffffffffffffffffffffffffffffffffffffffff16634d6b5e00856040518263ffffffff167c0100000000000000000000000000000000000000000000000000000000028152600401808273ffffffffffffffffffffffffffffffffffffffff1673ffffffffffffffffffffffffffffffffffffffff168152602001915050600060405180830381600087803b15801561339957600080fd5b505af11580156133ad573d6000803e3d6000fd5b505050506040513d6000823e3d601f19601f8201168201806040525060208110156133d757600080fd5b8101908080516401000000008111156133ef57600080fd5b8281019050602081018481111561340557600080fd5b815185600182028301116401000000008211171561342257600080fd5b50509291905050506040518082805190602001908083835b60208310151561345f578051825260208201915060208101905060208303925061343a565b6001836020036101000a03801982511681845116808217855250505050505090500191505060405180910390206000191614151561349c57600080fd5b600160009054906101000a900473ffffffffffffffffffffffffffffffffffffffff1673ffffffffffffffffffffffffffffffffffffffff1663d68800658b8b8b8b8b6040518663ffffffff167c0100000000000000000000000000000000000000000000000000000000028152600401808673ffffffffffffffffffffffffffffffffffffffff1673ffffffffffffffffffffffffffffffffffffffff1681526020018060200180602001806020018563ffffffff1663ffffffff168152602001848103845288818151815260200191508051906020019080838360005b8381101561359657808201518184015260208101905061357b565b50505050905090810190601f1680156135c35780820380516001836020036101000a031916815260200191505b50848103835287818151815260200191508051906020019080838360005b838110156135fc5780820151818401526020810190506135e1565b50505050905090810190601f1680156136295780820380516001836020036101000a031916815260200191505b50848103825286818151815260200191508051906020019080838360005b83811015613662578082015181840152602081019050613647565b50505050905090810190601f16801561368f5780820380516001836020036101000a031916815260200191505b5098505050505050505050602060405180830381600087803b1580156136b457600080fd5b505af11580156136c8573d6000803e3d6000fd5b505050506040513d60208110156136de57600080fd5b810190808051906020019092919050505093508973ffffffffffffffffffffffffffffffffffffffff163373ffffffffffffffffffffffffffffffffffffffff167f80b4e212843e2a45083219d2cf4777f510293616cdc6b08ca8dd4ea19778bdf160405160405180910390a38394505050505095945050505050565b600080856040805190810160405280600b81526020017f4449535452494255544f520000000000000000000000000000000000000000008152506040805190810160405280600e81526020017f4449535452494255544f525f494e000000000000000000000000000000000000815250816040518082805190602001908083835b60208310151561380157805182526020820191506020810190506020830392506137dc565b6001836020036101000a038019825116818451168082178552505050505050905001915050604051809103902060001916600160009054906101000a900473ffffffffffffffffffffffffffffffffffffffff1673ffffffffffffffffffffffffffffffffffffffff166327820851336040518263ffffffff167c0100000000000000000000000000000000000000000000000000000000028152600401808273ffffffffffffffffffffffffffffffffffffffff1673ffffffffffffffffffffffffffffffffffffffff168152602001915050600060405180830381600087803b1580156138ef57600080fd5b505af1158015613903573d6000803e3d6000fd5b505050506040513d6000823e3d601f19601f82011682018060405250602081101561392d57600080fd5b81019080805164010000000081111561394557600080fd5b8281019050602081018481111561395b57600080fd5b815185600182028301116401000000008211171561397857600080fd5b50509291905050506040518082805190602001908083835b6020831015156139b55780518252602082019150602081019050602083039250613990565b6001836020036101000a0380198251168184511680821785525050505050509050019150506040518091039020600019161415156139f257600080fd5b806040518082805190602001908083835b602083101515613a285780518252602082019150602081019050602083039250613a03565b6001836020036101000a038019825116818451168082178552505050505050905001915050604051809103902060001916600160009054906101000a900473ffffffffffffffffffffffffffffffffffffffff1673ffffffffffffffffffffffffffffffffffffffff16634d6b5e00856040518263ffffffff167c0100000000000000000000000000000000000000000000000000000000028152600401808273ffffffffffffffffffffffffffffffffffffffff1673ffffffffffffffffffffffffffffffffffffffff168152602001915050600060405180830381600087803b158015613b1657600080fd5b505af1158015613b2a573d6000803e3d6000fd5b505050506040513d6000823e3d601f19601f820116820180604052506020811015613b5457600080fd5b810190808051640100000000811115613b6c57600080fd5b82810190506020810184811115613b8257600080fd5b8151856001820283011164010000000082111715613b9f57600080fd5b50509291905050506040518082805190602001908083835b602083101515613bdc5780518252602082019150602081019050602083039250613bb7565b6001836020036101000a038019825116818451168082178552505050505050905001915050604051809103902060001916141515613c1957600080fd5b600160009054906101000a900473ffffffffffffffffffffffffffffffffffffffff1673ffffffffffffffffffffffffffffffffffffffff16630248a7498a8a8a8a6040518563ffffffff167c0100000000000000000000000000000000000000000000000000000000028152600401808573ffffffffffffffffffffffffffffffffffffffff1673ffffffffffffffffffffffffffffffffffffffff16815260200180602001806020018463ffffffff1663ffffffff168152602001838103835286818151815260200191508051906020019080838360005b83811015613d0e578082015181840152602081019050613cf3565b50505050905090810190601f168015613d3b5780820380516001836020036101000a031916815260200191505b50838103825285818151815260200191508051906020019080838360005b83811015613d74578082015181840152602081019050613d59565b50505050905090810190601f168015613da15780820380516001836020036101000a031916815260200191505b509650505050505050602060405180830381600087803b158015613dc457600080fd5b505af1158015613dd8573d6000803e3d6000fd5b505050506040513d6020811015613dee57600080fd5b810190808051906020019092919050505093508873ffffffffffffffffffffffffffffffffffffffff163373ffffffffffffffffffffffffffffffffffffffff167f34ee6cc7dd576ed8200d28b1ec25b88696ea0fcea4d830bf426b2ce0452ac2ad60405160405180910390a383945050505050949350505050565b6000809054906101000a900473ffffffffffffffffffffffffffffffffffffffff1673ffffffffffffffffffffffffffffffffffffffff163373ffffffffffffffffffffffffffffffffffffffff16141515613ec557600080fd5b6000809054906101000a900473ffffffffffffffffffffffffffffffffffffffff1673ffffffffffffffffffffffffffffffffffffffff167ff8df31144d9c2f0f6b59d69b8b98abd5459d07f2742c4df920b25aae33c6482060405160405180910390a260008060006101000a81548173ffffffffffffffffffffffffffffffffffffffff021916908373ffffffffffffffffffffffffffffffffffffffff160217905550565b6060806000600160009054906101000a900473ffffffffffffffffffffffffffffffffffffffff1673ffffffffffffffffffffffffffffffffffffffff166381aed62a856040518263ffffffff167c0100000000000000000000000000000000000000000000000000000000028152600401808273ffffffffffffffffffffffffffffffffffffffff1673ffffffffffffffffffffffffffffffffffffffff168152602001915050600060405180830381600087803b15801561402e57600080fd5b505af1158015614042573d6000803e3d6000fd5b505050506040513d6000823e3d601f19601f82011682018060405250606081101561406c57600080fd5b81019080805164010000000081111561408457600080fd5b8281019050602081018481111561409a57600080fd5b81518560018202830111640100000000821117156140b757600080fd5b505092919060200180516401000000008111156140d357600080fd5b828101905060208101848111156140e957600080fd5b815185600182028301116401000000008211171561410657600080fd5b5050929190602001805190602001909291905050508093508194508295505050508282829250925092509193909250565b6000809054906101000a900473ffffffffffffffffffffffffffffffffffffffff1681565b6060806000600160009054906101000a900473ffffffffffffffffffffffffffffffffffffffff1673ffffffffffffffffffffffffffffffffffffffff1663aca3974f856040518263ffffffff167c0100000000000000000000000000000000000000000000000000000000028152600401808273ffffffffffffffffffffffffffffffffffffffff1673ffffffffffffffffffffffffffffffffffffffff168152602001915050600060405180830381600087803b15801561421e57600080fd5b505af1158015614232573d6000803e3d6000fd5b505050506040513d6000823e3d601f19601f82011682018060405250606081101561425c57600080fd5b81019080805164010000000081111561427457600080fd5b8281019050602081018481111561428a57600080fd5b81518560018202830111640100000000821117156142a757600080fd5b505092919060200180516401000000008111156142c357600080fd5b828101905060208101848111156142d957600080fd5b81518560018202830111640100000000821117156142f657600080fd5b5050929190602001805190602001909291905050508093508194508295505050508282829250925092509193909250565b600080856040805190810160405280600b81526020017f4449535452494255544f520000000000000000000000000000000000000000008152506040805190810160405280601081526020017f4449535452494255544f525f53454e4400000000000000000000000000000000815250816040518082805190602001908083835b6020831015156143cd57805182526020820191506020810190506020830392506143a8565b6001836020036101000a038019825116818451168082178552505050505050905001915050604051809103902060001916600160009054906101000a900473ffffffffffffffffffffffffffffffffffffffff1673ffffffffffffffffffffffffffffffffffffffff166327820851336040518263ffffffff167c0100000000000000000000000000000000000000000000000000000000028152600401808273ffffffffffffffffffffffffffffffffffffffff1673ffffffffffffffffffffffffffffffffffffffff168152602001915050600060405180830381600087803b1580156144bb57600080fd5b505af11580156144cf573d6000803e3d6000fd5b505050506040513d6000823e3d601f19601f8201168201806040525060208110156144f957600080fd5b81019080805164010000000081111561451157600080fd5b8281019050602081018481111561452757600080fd5b815185600182028301116401000000008211171561454457600080fd5b50509291905050506040518082805190602001908083835b602083101515614581578051825260208201915060208101905060208303925061455c565b6001836020036101000a0380198251168184511680821785525050505050509050019150506040518091039020600019161415156145be57600080fd5b806040518082805190602001908083835b6020831015156145f457805182526020820191506020810190506020830392506145cf565b6001836020036101000a038019825116818451168082178552505050505050905001915050604051809103902060001916600160009054906101000a900473ffffffffffffffffffffffffffffffffffffffff1673ffffffffffffffffffffffffffffffffffffffff16634d6b5e00856040518263ffffffff167c0100000000000000000000000000000000000000000000000000000000028152600401808273ffffffffffffffffffffffffffffffffffffffff1673ffffffffffffffffffffffffffffffffffffffff168152602001915050600060405180830381600087803b1580156146e257600080fd5b505af11580156146f6573d6000803e3d6000fd5b505050506040513d6000823e3d601f19601f82011682018060405250602081101561472057600080fd5b81019080805164010000000081111561473857600080fd5b8281019050602081018481111561474e57600080fd5b815185600182028301116401000000008211171561476b57600080fd5b50509291905050506040518082805190602001908083835b6020831015156147a85780518252602082019150602081019050602083039250614783565b6001836020036101000a0380198251168184511680821785525050505050509050019150506040518091039020600019161415156147e557600080fd5b600160009054906101000a900473ffffffffffffffffffffffffffffffffffffffff1673ffffffffffffffffffffffffffffffffffffffff1663a12998668a8a8a8a6040518563ffffffff167c0100000000000000000000000000000000000000000000000000000000028152600401808573ffffffffffffffffffffffffffffffffffffffff1673ffffffffffffffffffffffffffffffffffffffff16815260200180602001806020018463ffffffff1663ffffffff168152602001838103835286818151815260200191508051906020019080838360005b838110156148da5780820151818401526020810190506148bf565b50505050905090810190601f1680156149075780820380516001836020036101000a031916815260200191505b50838103825285818151815260200191508051906020019080838360005b83811015614940578082015181840152602081019050614925565b50505050905090810190601f16801561496d5780820380516001836020036101000a031916815260200191505b509650505050505050602060405180830381600087803b15801561499057600080fd5b505af11580156149a4573d6000803e3d6000fd5b505050506040513d60208110156149ba57600080fd5b810190808051906020019092919050505093508873ffffffffffffffffffffffffffffffffffffffff163373ffffffffffffffffffffffffffffffffffffffff167f34ee6cc7dd576ed8200d28b1ec25b88696ea0fcea4d830bf426b2ce0452ac2ad60405160405180910390a383945050505050949350505050565b6000806000809054906101000a900473ffffffffffffffffffffffffffffffffffffffff1673ffffffffffffffffffffffffffffffffffffffff163373ffffffffffffffffffffffffffffffffffffffff16141515614a9457600080fd5b600160009054906101000a900473ffffffffffffffffffffffffffffffffffffffff1673ffffffffffffffffffffffffffffffffffffffff1663bf29808f85856040518363ffffffff167c0100000000000000000000000000000000000000000000000000000000028152600401808060200180602001838103835285818151815260200191508051906020019080838360005b83811015614b43578082015181840152602081019050614b28565b50505050905090810190601f168015614b705780820380516001836020036101000a031916815260200191505b50838103825284818151815260200191508051906020019080838360005b83811015614ba9578082015181840152602081019050614b8e565b50505050905090810190601f168015614bd65780820380516001836020036101000a031916815260200191505b50945050505050602060405180830381600087803b158015614bf757600080fd5b505af1158015614c0b573d6000803e3d6000fd5b505050506040513d6020811015614c2157600080fd5b810190808051906020019092919050505090508073ffffffffffffffffffffffffffffffffffffffff163373ffffffffffffffffffffffffffffffffffffffff167f12a3721c49b6a3ccf48f09445213a89dcf36f47ad806dc19b36060e9781e494360405160405180910390a38091505092915050565b60608060606000600160009054906101000a900473ffffffffffffffffffffffffffffffffffffffff1673ffffffffffffffffffffffffffffffffffffffff1663d7d0eb87866040518263ffffffff167c0100000000000000000000000000000000000000000000000000000000028152600401808273ffffffffffffffffffffffffffffffffffffffff1673ffffffffffffffffffffffffffffffffffffffff168152602001915050600060405180830381600087803b158015614d5c57600080fd5b505af1158015614d70573d6000803e3d6000fd5b505050506040513d6000823e3d601f19601f820116820180604052506080811015614d9a57600080fd5b810190808051640100000000811115614db257600080fd5b82810190506020810184811115614dc857600080fd5b8151856001820283011164010000000082111715614de557600080fd5b50509291906020018051640100000000811115614e0157600080fd5b82810190506020810184811115614e1757600080fd5b8151856001820283011164010000000082111715614e3457600080fd5b50509291906020018051640100000000811115614e5057600080fd5b82810190506020810184811115614e6657600080fd5b8151856001820283011164010000000082111715614e8357600080fd5b505092919060200180519060200190929190505050809450819550829650839750505050508383838393509350935093509193509193565b60608060608060606000600160009054906101000a900473ffffffffffffffffffffffffffffffffffffffff1673ffffffffffffffffffffffffffffffffffffffff1663e48fca81886040518263ffffffff167c0100000000000000000000000000000000000000000000000000000000028152600401808273ffffffffffffffffffffffffffffffffffffffff1673ffffffffffffffffffffffffffffffffffffffff168152602001915050600060405180830381600087803b158015614f8257600080fd5b505af1158015614f96573d6000803e3d6000fd5b505050506040513d6000823e3d601f19601f8201168201806040525060c0811015614fc057600080fd5b810190808051640100000000811115614fd857600080fd5b82810190506020810184811115614fee57600080fd5b815185600182028301116401000000008211171561500b57600080fd5b5050929190602001805164010000000081111561502757600080fd5b8281019050602081018481111561503d57600080fd5b815185600182028301116401000000008211171561505a57600080fd5b5050929190602001805164010000000081111561507657600080fd5b8281019050602081018481111561508c57600080fd5b81518560018202830111640100000000821117156150a957600080fd5b505092919060200180516401000000008111156150c557600080fd5b828101905060208101848111156150db57600080fd5b81518560018202830111640100000000821117156150f857600080fd5b5050929190602001805164010000000081111561511457600080fd5b8281019050602081018481111561512a57600080fd5b815185600182028301116401000000008211171561514757600080fd5b505092919060200180519060200190929190505050809650819750829850839950849a50859b5050505050505085858585858595509550955095509550955091939550919395565b606080600160009054906101000a900473ffffffffffffffffffffffffffffffffffffffff1673ffffffffffffffffffffffffffffffffffffffff1663f2997d76846040518263ffffffff167c0100000000000000000000000000000000000000000000000000000000028152600401808273ffffffffffffffffffffffffffffffffffffffff1673ffffffffffffffffffffffffffffffffffffffff168152602001915050600060405180830381600087803b15801561524f57600080fd5b505af1158015615263573d6000803e3d6000fd5b505050506040513d6000823e3d601f19601f82011682018060405250604081101561528d57600080fd5b8101908080516401000000008111156152a557600080fd5b828101905060208101848111156152bb57600080fd5b81518560018202830111640100000000821117156152d857600080fd5b505092919060200180516401000000008111156152f457600080fd5b8281019050602081018481111561530a57600080fd5b815185600182028301116401000000008211171561532757600080fd5b50509291905050508092508193505050818191509150915091565b6000809054906101000a900473ffffffffffffffffffffffffffffffffffffffff1673ffffffffffffffffffffffffffffffffffffffff163373ffffffffffffffffffffffffffffffffffffffff1614151561539d57600080fd5b600073ffffffffffffffffffffffffffffffffffffffff168173ffffffffffffffffffffffffffffffffffffffff16141515156153d957600080fd5b8073ffffffffffffffffffffffffffffffffffffffff166000809054906101000a900473ffffffffffffffffffffffffffffffffffffffff1673ffffffffffffffffffffffffffffffffffffffff167f8be0079c531659141344cd1fd0a4f28419497f9722a3daafe3b4186f6b6457e060405160405180910390a3806000806101000a81548173ffffffffffffffffffffffffffffffffffffffff021916908373ffffffffffffffffffffffffffffffffffffffff160217905550505600a165627a7a72305820dcf4a47c0eb1ee3644b102a485a4bc3187d96b42fcccfefb53650a7396a3b77b0029",
  "source": "pragma solidity ^0.4.23;\r\nimport \"./SupplyChainStorage.sol\";\r\nimport \"./Ownable.sol\";\r\n\r\ncontract DrugSupplyChain is Ownable{\r\n\tevent InitialBatch(address indexed user, address indexed batchNo);\r\n\tevent DoneSupplier(address indexed user, address indexed batchNo);\r\n\tevent DoneFactoryIn(address indexed user, address indexed batchNo);\r\n\tevent DoneFactorySend(address indexed user, address indexed batchNo);\r\n\tevent DoneDistributorIn(address indexed user, address indexed batchNo);\r\n\tevent DoneDistributorSend(address indexed user, address indexed batchNo);\r\n\tevent DoneDrugStore(address indexed user, address indexed batchNo);\r\n\r\n\t/* Modifier */\r\n    modifier isValidPerformer(address batchNo, string role, string nextAction) {\r\n    \r\n        require(keccak256(supplyChainStorage.getUserRole(msg.sender)) == keccak256(role));\r\n        require(keccak256(supplyChainStorage.getNextAction(batchNo)) == keccak256(nextAction));\r\n        _;\r\n    }\r\n\t\r\n    /* Storage Variables */    \r\n    SupplyChainStorage supplyChainStorage;\r\n\t\r\n    constructor(address _supplyChainAddress) public {\r\n        supplyChainStorage = SupplyChainStorage(_supplyChainAddress);\r\n    }\r\n    \r\n\t/* Get Next Action */\r\n\tfunction getNextAction(address _batchNo) public view returns(string action){\r\n       (action) = supplyChainStorage.getNextAction(_batchNo);\r\n       return (action);\r\n    }\r\n\r\n\t/* Perform Basic Batch */\r\n\tfunction addBasicDetails(string _registrationNo, string _drugName) public onlyOwner returns(address){\r\n\t\taddress batchNo = supplyChainStorage.setBasicDetails(_registrationNo, _drugName);\r\n\r\n\t\temit InitialBatch(msg.sender, batchNo);\r\n\t\treturn(batchNo);\r\n\t}\r\n\r\n\t/* Get Basic Details */\r\n\tfunction getBasicDetails(address _batchNo) public view returns(string registrationNo, string drugName){\r\n\t\t/* Call Storage Contract */\r\n\t\t(registrationNo, drugName) = supplyChainStorage.getBasicDetails(_batchNo);\r\n\t\treturn(registrationNo, drugName);\r\n\t}\r\n\r\n\t/* Perform Supplier */\r\n\tfunction updateSupplierData(address _batchNo, \r\n\t\t\t\t\t\t\t\tstring _sendDate,\r\n\t\t\t\t\t\t\t\tstring _factoryName,\r\n\t\t\t\t\t\t\t\tstring _itemName,\r\n\t\t\t\t\t\t\t\tuint32 _quantity) public isValidPerformer(_batchNo, 'SUPPLIER', 'SUPPLIER') returns(bool){\r\n\t\t/* Call Storage Contract */\r\n\t\tbool status = supplyChainStorage.setSupplierData(_batchNo, _sendDate, _factoryName, _itemName, _quantity);\r\n\r\n\t\temit DoneSupplier(msg.sender, _batchNo);\r\n\t\treturn(status);\r\n\t}\r\n\r\n\t/* Get Supplier */\r\n\tfunction getSupplierData(address _batchNo) public view returns(string sendDate,\r\n\t\t\t\t\t\t\t\t\t\t\t\t\t\t\t\t   string factoryName,\r\n\t\t\t\t\t\t\t\t\t\t\t\t\t\t\t\t   string itemName,\r\n\t\t\t\t\t\t\t\t\t\t\t\t\t\t\t\t   uint32 quantity){\r\n\t\t/* Call Storage Contract */\r\n\t\t(sendDate, factoryName, itemName, quantity) = supplyChainStorage.getSupplierData(_batchNo);\r\n\t\treturn(sendDate, factoryName, itemName, quantity);\r\n\t}\r\n\t\r\n\t/* Perform Factory In */\r\n\tfunction updateFactoryInData(address _batchNo,\r\n\t\t\t\t\t\t\t  string _receiveDate,\r\n\t\t\t\t\t\t\t  string _itemName,\r\n\t\t\t\t\t\t\t  uint32 _quantity) public isValidPerformer(_batchNo, 'FACTORY', 'FACTORY_IN') returns(bool){\r\n\t\t/* Call Storage Contract */\r\n\t\tbool status = supplyChainStorage.setFactoryInData(_batchNo, _receiveDate, _itemName, _quantity);\r\n\r\n\t\temit DoneFactoryIn(msg.sender, _batchNo);\r\n\t\treturn(status);\r\n\t}\r\n\r\n\t/* Get Factory In */\r\n\tfunction getFactoryInData(address _batchNo) public view returns(string receiveDate,\r\n\t\t\t\t\t\t\t\t\t\t\t\t\t\t\t\tstring itemName,\r\n\t\t\t\t\t\t\t\t\t\t\t\t\t\t\t\tuint32 quantity){\r\n\t\t(receiveDate, itemName, quantity) = supplyChainStorage.getFactoryInData(_batchNo);\r\n\t\treturn(receiveDate, itemName, quantity);\r\n\t}\r\n\r\n\t/* Perform Factory Send */\r\n\tfunction updateFactorySendData(address _batchNo,\r\n\t\t\t\t\t\t\t\t   string _sendDate,\r\n\t\t\t\t\t\t\t\t   string _drugName,\r\n\t\t\t\t\t\t\t\t   string _productionNumber,\r\n\t\t\t\t\t\t\t\t   string _productionDate,\r\n\t\t\t\t\t\t\t\t   string _expiredDate,\r\n\t\t\t\t\t\t\t\t   uint32 _quantity) public isValidPerformer(_batchNo, 'FACTORY', 'FACTORY_SEND') returns(bool){\r\n\t\t/* Call Storage Contract */\r\n\t\tbool status = supplyChainStorage.setFactorySendData(_batchNo, _sendDate, _drugName, _productionNumber, _productionDate, _expiredDate, _quantity);\r\n\r\n\t\temit DoneFactorySend(msg.sender, _batchNo);\r\n\t\treturn(status);\r\n\t}\r\n\r\n\t/* Get Factory Send */\r\n\tfunction getFactorySendData(address _batchNo) public view returns(string sendDate,\r\n\t\t\t\t\t\t\t\t\t\t\t\t\t\t\t\t\t  string drugName,\r\n\t\t\t\t\t\t\t\t\t\t\t\t\t\t\t\t\t  string productionNumber,\r\n\t\t\t\t\t\t\t\t\t\t\t\t\t\t\t\t\t  string productionDate,\r\n\t\t\t\t\t\t\t\t\t\t\t\t\t\t\t\t\t  string expiredDate,\r\n\t\t\t\t\t\t\t\t\t\t\t\t\t\t\t\t\t  uint32 quantity){\r\n\t\t(sendDate, drugName, productionNumber, productionDate, expiredDate, quantity) = supplyChainStorage.getFactorySendData(_batchNo);\r\n\t\treturn(sendDate, drugName, productionNumber, productionDate, expiredDate, quantity);\r\n\t}\r\n\r\n\t/* Perform Distributor In */\r\n\tfunction updateDistributorInData(address _batchNo,\r\n\t\t\t\t\t\t\t\t\t string _receiveDate,\r\n\t\t\t\t\t\t\t\t\t string _drugName,\r\n\t\t\t\t\t\t\t\t\t uint32 _quantity) public isValidPerformer(_batchNo, 'DISTRIBUTOR', 'DISTRIBUTOR_IN') returns(bool){\r\n\t\t/* Call Storage Contract */\r\n\t\tbool status = supplyChainStorage.setDistributorInData(_batchNo, _receiveDate, _drugName, _quantity);\r\n\r\n\t\temit DoneFactorySend(msg.sender, _batchNo);\r\n\t\treturn(status);\r\n\t}\r\n\r\n\t/* Get Distributor In */\r\n\tfunction getDistributorInData(address _batchNo) public view returns(string receiveDate,\r\n\t\t\t\t\t\t\t\t\t\t\t\t\t\t\t\t\t\tstring drugName,\r\n\t\t\t\t\t\t\t\t\t\t\t\t\t\t\t\t\t\tuint32 quantity){\r\n\t\t(receiveDate, drugName, quantity) = supplyChainStorage.getDistributorInData(_batchNo);\r\n\t\treturn(receiveDate, drugName, quantity);\r\n\t}\r\n\r\n\t/* Perform Distributor Send */\r\n\tfunction updateDistributorSendData(address _batchNo,\r\n\t\t\t\t\t\t\t\t\t   string _sendDate,\r\n\t\t\t\t\t\t\t\t\t   string _drugStoreName,\r\n\t\t\t\t\t\t\t\t\t   uint32 _quantity) public isValidPerformer(_batchNo, 'DISTRIBUTOR', 'DISTRIBUTOR_SEND') returns(bool){\r\n\t\t/* Call Storage Contract */\r\n\t\tbool status = supplyChainStorage.setDistributorSendData(_batchNo, _sendDate, _drugStoreName, _quantity);\r\n\r\n\t\temit DoneFactorySend(msg.sender, _batchNo);\r\n\t\treturn(status);\r\n\t}\r\n\r\n\t/* Get Distributor Send */\r\n\tfunction getDistributorSendData(address _batchNo) public view returns(string sendDate,\r\n\t\t\t\t\t\t\t\t\t\t\t\t\t\t\t\t\t\tstring drugStoreName,\r\n\t\t\t\t\t\t\t\t\t\t\t\t\t\t\t\t\t\tuint32 quantity){\r\n\t\t(sendDate, drugStoreName, quantity) = supplyChainStorage.getDistributorSendData(_batchNo);\r\n\t\treturn(sendDate, drugStoreName, quantity);\r\n\t}\r\n\r\n\t/* Perform Drugstore */\r\n\tfunction updateDrugStoreData(address _batchNo,\r\n\t\t\t\t\t\t\t\t string _receiveDate,\r\n\t\t\t\t\t\t\t\t uint32 _quantity,\r\n\t\t\t\t\t\t\t \t string _additionalInfo) public isValidPerformer(_batchNo, 'DRUGSTORE', 'DRUGSTORE') returns(bool){\r\n\t\t/* Call Storage Contract */\r\n\t\tbool status = supplyChainStorage.setDrugStoreData(_batchNo, _receiveDate, _quantity, _additionalInfo);\r\n\r\n\t\temit DoneFactorySend(msg.sender, _batchNo);\r\n\t\treturn(status);\r\n\t}\r\n\r\n\t/* Get Drugstore */\r\n\tfunction getDrugStoreData(address _batchNo) public view returns(string receiveDate,\r\n\t\t\t\t\t\t\t\t\t\t\t\t\t\t\t\t\tuint32 quantity,\r\n\t\t\t\t\t\t\t\t\t\t\t\t\t\t\t\t\tstring additionalInfo){\r\n\t\t(receiveDate, quantity, additionalInfo) = supplyChainStorage.getDrugStoreData(_batchNo);\r\n\t\treturn(receiveDate, quantity, additionalInfo);\r\n\t}\r\n}\r\n",
  "sourcePath": "D:\\xampp\\htdocs\\Proyek3\\drug-supplychain-ethereum\\contracts\\DrugSupplyChain.sol",
  "compiler": {
    "name": "solc",
    "version": "0.4.24+commit.e67f0147.Emscripten.clang"
  },
  "schemaVersion": "2.0.1",
  "updatedAt": "2018-12-10T14:26:58.621Z"
}