{
  "contractName": "SupplyChainStorage",
  "abi": [
    {
      "constant": true,
      "inputs": [],
      "name": "lastAccess",
      "outputs": [
        {
          "name": "",
          "type": "address"
        }
      ],
      "payable": false,
      "stateMutability": "view",
      "type": "function"
    },
    {
      "constant": false,
      "inputs": [],
      "name": "renounceOwnership",
      "outputs": [],
      "payable": false,
      "stateMutability": "nonpayable",
      "type": "function"
    },
    {
      "constant": true,
      "inputs": [],
      "name": "owner",
      "outputs": [
        {
          "name": "",
          "type": "address"
        }
      ],
      "payable": false,
      "stateMutability": "view",
      "type": "function"
    },
    {
      "constant": false,
      "inputs": [
        {
          "name": "newOwner",
          "type": "address"
        }
      ],
      "name": "transferOwnership",
      "outputs": [],
      "payable": false,
      "stateMutability": "nonpayable",
      "type": "function"
    },
    {
      "inputs": [],
      "payable": false,
      "stateMutability": "nonpayable",
      "type": "constructor"
    },
    {
      "anonymous": false,
      "inputs": [
        {
          "indexed": false,
          "name": "caller",
          "type": "address"
        }
      ],
      "name": "AuthorizedCaller",
      "type": "event"
    },
    {
      "anonymous": false,
      "inputs": [
        {
          "indexed": false,
          "name": "caller",
          "type": "address"
        }
      ],
      "name": "DeAuthorizedCaller",
      "type": "event"
    },
    {
      "anonymous": false,
      "inputs": [
        {
          "indexed": true,
          "name": "previousOwner",
          "type": "address"
        }
      ],
      "name": "OwnershipRenounced",
      "type": "event"
    },
    {
      "anonymous": false,
      "inputs": [
        {
          "indexed": true,
          "name": "previousOwner",
          "type": "address"
        },
        {
          "indexed": true,
          "name": "newOwner",
          "type": "address"
        }
      ],
      "name": "OwnershipTransferred",
      "type": "event"
    },
    {
      "constant": false,
      "inputs": [
        {
          "name": "_caller",
          "type": "address"
        }
      ],
      "name": "authorizeCaller",
      "outputs": [
        {
          "name": "",
          "type": "bool"
        }
      ],
      "payable": false,
      "stateMutability": "nonpayable",
      "type": "function"
    },
    {
      "constant": false,
      "inputs": [
        {
          "name": "_caller",
          "type": "address"
        }
      ],
      "name": "deAuthorizeCaller",
      "outputs": [
        {
          "name": "",
          "type": "bool"
        }
      ],
      "payable": false,
      "stateMutability": "nonpayable",
      "type": "function"
    },
    {
      "constant": true,
      "inputs": [
        {
          "name": "_userAddress",
          "type": "address"
        }
      ],
      "name": "getUserRole",
      "outputs": [
        {
          "name": "",
          "type": "string"
        }
      ],
      "payable": false,
      "stateMutability": "view",
      "type": "function"
    },
    {
      "constant": true,
      "inputs": [
        {
          "name": "_batchNo",
          "type": "address"
        }
      ],
      "name": "getNextAction",
      "outputs": [
        {
          "name": "",
          "type": "string"
        }
      ],
      "payable": false,
      "stateMutability": "view",
      "type": "function"
    },
    {
      "constant": false,
      "inputs": [
        {
          "name": "_userAddress",
          "type": "address"
        },
        {
          "name": "_name",
          "type": "string"
        },
        {
          "name": "_contactNo",
          "type": "string"
        },
        {
          "name": "_role",
          "type": "string"
        },
        {
          "name": "_isActive",
          "type": "bool"
        },
        {
          "name": "_profileHash",
          "type": "string"
        }
      ],
      "name": "setUser",
      "outputs": [
        {
          "name": "",
          "type": "bool"
        }
      ],
      "payable": false,
      "stateMutability": "nonpayable",
      "type": "function"
    },
    {
      "constant": true,
      "inputs": [
        {
          "name": "_userAddress",
          "type": "address"
        }
      ],
      "name": "getUser",
      "outputs": [
        {
          "name": "name",
          "type": "string"
        },
        {
          "name": "contactNo",
          "type": "string"
        },
        {
          "name": "role",
          "type": "string"
        },
        {
          "name": "isActive",
          "type": "bool"
        },
        {
          "name": "profileHash",
          "type": "string"
        }
      ],
      "payable": false,
      "stateMutability": "view",
      "type": "function"
    },
    {
      "constant": false,
      "inputs": [
        {
          "name": "_registrationNo",
          "type": "string"
        },
        {
          "name": "_drugName",
          "type": "string"
        }
      ],
      "name": "setBasicDetails",
      "outputs": [
        {
          "name": "",
          "type": "address"
        }
      ],
      "payable": false,
      "stateMutability": "nonpayable",
      "type": "function"
    },
    {
      "constant": true,
      "inputs": [
        {
          "name": "_batchNo",
          "type": "address"
        }
      ],
      "name": "getBasicDetails",
      "outputs": [
        {
          "name": "registrationNo",
          "type": "string"
        },
        {
          "name": "drugName",
          "type": "string"
        }
      ],
      "payable": false,
      "stateMutability": "view",
      "type": "function"
    },
    {
      "constant": false,
      "inputs": [
        {
          "name": "batchNo",
          "type": "address"
        },
        {
          "name": "_sendDate",
          "type": "string"
        },
        {
          "name": "_factoryName",
          "type": "string"
        },
        {
          "name": "_itemName",
          "type": "string"
        },
        {
          "name": "_quantity",
          "type": "uint32"
        }
      ],
      "name": "setSupplierData",
      "outputs": [
        {
          "name": "",
          "type": "bool"
        }
      ],
      "payable": false,
      "stateMutability": "nonpayable",
      "type": "function"
    },
    {
      "constant": true,
      "inputs": [
        {
          "name": "batchNo",
          "type": "address"
        }
      ],
      "name": "getSupplierData",
      "outputs": [
        {
          "name": "sendDate",
          "type": "string"
        },
        {
          "name": "factoryName",
          "type": "string"
        },
        {
          "name": "itemName",
          "type": "string"
        },
        {
          "name": "quantity",
          "type": "uint32"
        }
      ],
      "payable": false,
      "stateMutability": "view",
      "type": "function"
    },
    {
      "constant": false,
      "inputs": [
        {
          "name": "batchNo",
          "type": "address"
        },
        {
          "name": "_receiveDate",
          "type": "string"
        },
        {
          "name": "_itemName",
          "type": "string"
        },
        {
          "name": "_quantity",
          "type": "uint32"
        }
      ],
      "name": "setFactoryInData",
      "outputs": [
        {
          "name": "",
          "type": "bool"
        }
      ],
      "payable": false,
      "stateMutability": "nonpayable",
      "type": "function"
    },
    {
      "constant": true,
      "inputs": [
        {
          "name": "batchNo",
          "type": "address"
        }
      ],
      "name": "getFactoryInData",
      "outputs": [
        {
          "name": "receiveDate",
          "type": "string"
        },
        {
          "name": "itemName",
          "type": "string"
        },
        {
          "name": "quantity",
          "type": "uint32"
        }
      ],
      "payable": false,
      "stateMutability": "view",
      "type": "function"
    },
    {
      "constant": false,
      "inputs": [
        {
          "name": "batchNo",
          "type": "address"
        },
        {
          "name": "_sendDate",
          "type": "string"
        },
        {
          "name": "_drugName",
          "type": "string"
        },
        {
          "name": "_productionNumber",
          "type": "string"
        },
        {
          "name": "_productionDate",
          "type": "string"
        },
        {
          "name": "_expiredDate",
          "type": "string"
        },
        {
          "name": "_quantity",
          "type": "uint32"
        }
      ],
      "name": "setFactorySendData",
      "outputs": [
        {
          "name": "",
          "type": "bool"
        }
      ],
      "payable": false,
      "stateMutability": "nonpayable",
      "type": "function"
    },
    {
      "constant": true,
      "inputs": [
        {
          "name": "batchNo",
          "type": "address"
        }
      ],
      "name": "getFactorySendData",
      "outputs": [
        {
          "name": "sendDate",
          "type": "string"
        },
        {
          "name": "drugName",
          "type": "string"
        },
        {
          "name": "productionNumber",
          "type": "string"
        },
        {
          "name": "productionDate",
          "type": "string"
        },
        {
          "name": "expiredDate",
          "type": "string"
        },
        {
          "name": "quantity",
          "type": "uint32"
        }
      ],
      "payable": false,
      "stateMutability": "view",
      "type": "function"
    },
    {
      "constant": false,
      "inputs": [
        {
          "name": "batchNo",
          "type": "address"
        },
        {
          "name": "_receiveDate",
          "type": "string"
        },
        {
          "name": "_drugName",
          "type": "string"
        },
        {
          "name": "_quantity",
          "type": "uint32"
        }
      ],
      "name": "setDistributorInData",
      "outputs": [
        {
          "name": "",
          "type": "bool"
        }
      ],
      "payable": false,
      "stateMutability": "nonpayable",
      "type": "function"
    },
    {
      "constant": true,
      "inputs": [
        {
          "name": "batchNo",
          "type": "address"
        }
      ],
      "name": "getDistributorInData",
      "outputs": [
        {
          "name": "receiveDate",
          "type": "string"
        },
        {
          "name": "drugName",
          "type": "string"
        },
        {
          "name": "quantity",
          "type": "uint32"
        }
      ],
      "payable": false,
      "stateMutability": "view",
      "type": "function"
    },
    {
      "constant": false,
      "inputs": [
        {
          "name": "batchNo",
          "type": "address"
        },
        {
          "name": "_sendDate",
          "type": "string"
        },
        {
          "name": "_drugStoreName",
          "type": "string"
        },
        {
          "name": "_quantity",
          "type": "uint32"
        }
      ],
      "name": "setDistributorSendData",
      "outputs": [
        {
          "name": "",
          "type": "bool"
        }
      ],
      "payable": false,
      "stateMutability": "nonpayable",
      "type": "function"
    },
    {
      "constant": true,
      "inputs": [
        {
          "name": "batchNo",
          "type": "address"
        }
      ],
      "name": "getDistributorSendData",
      "outputs": [
        {
          "name": "sendDate",
          "type": "string"
        },
        {
          "name": "drugStoreName",
          "type": "string"
        },
        {
          "name": "quantity",
          "type": "uint32"
        }
      ],
      "payable": false,
      "stateMutability": "view",
      "type": "function"
    },
    {
      "constant": false,
      "inputs": [
        {
          "name": "batchNo",
          "type": "address"
        },
        {
          "name": "_receiveDate",
          "type": "string"
        },
        {
          "name": "_quantity",
          "type": "uint32"
        },
        {
          "name": "_additionalInfo",
          "type": "string"
        }
      ],
      "name": "setDrugStoreData",
      "outputs": [
        {
          "name": "",
          "type": "bool"
        }
      ],
      "payable": false,
      "stateMutability": "nonpayable",
      "type": "function"
    },
    {
      "constant": true,
      "inputs": [
        {
          "name": "batchNo",
          "type": "address"
        }
      ],
      "name": "getDrugStoreData",
      "outputs": [
        {
          "name": "receiveDate",
          "type": "string"
        },
        {
          "name": "quantity",
          "type": "uint32"
        },
        {
          "name": "additionalInfo",
          "type": "string"
        }
      ],
      "payable": false,
      "stateMutability": "view",
      "type": "function"
    }
  ],
  "bytecode": "0x608060405234801561001057600080fd5b50336000806101000a81548173ffffffffffffffffffffffffffffffffffffffff021916908373ffffffffffffffffffffffffffffffffffffffff1602179055506001600460003373ffffffffffffffffffffffffffffffffffffffff1673ffffffffffffffffffffffffffffffffffffffff16815260200190815260200160002060006101000a81548160ff021916908360ff1602179055507f8afeca650897be3183b7c0d24eba96a1b990f75c4bd74a0cfb2c0a71aec48e6133604051808273ffffffffffffffffffffffffffffffffffffffff1673ffffffffffffffffffffffffffffffffffffffff16815260200191505060405180910390a1614a188061011c6000396000f30060806040526004361061013e576000357c0100000000000000000000000000000000000000000000000000000000900463ffffffff1680630248a7491461014357806306988fdf1461023a5780631bcd250a146103755780631e84df26146103d0578063278208511461050b5780632c388d5d146105c75780633480898b146106225780633590dbf9146106795780634d6b5e00146107705780636f77926b1461082c578063715018a614610a3757806381aed62a14610a4e5780638da5cb5b14610b89578063a129986614610be0578063a49644ef14610cd7578063aca3974f14610dce578063bf29808f14610f09578063d688006514610ff8578063d7d0eb8714611135578063e48fca81146112dc578063e5262cc91461155b578063f2997d7614611724578063f2fde38b1461184c578063fb7a20af1461188f575b600080fd5b34801561014f57600080fd5b50610220600480360381019080803573ffffffffffffffffffffffffffffffffffffffff169060200190929190803590602001908201803590602001908080601f0160208091040260200160405190810160405280939291908181526020018383808284378201915050505050509192919290803590602001908201803590602001908080601f0160208091040260200160405190810160405280939291908181526020018383808284378201915050505050509192919290803563ffffffff169060200190929190505050611a0e565b604051808215151515815260200191505060405180910390f35b34801561024657600080fd5b5061027b600480360381019080803573ffffffffffffffffffffffffffffffffffffffff169060200190929190505050611c09565b60405180806020018463ffffffff1663ffffffff16815260200180602001838103835286818151815260200191508051906020019080838360005b838110156102d15780820151818401526020810190506102b6565b50505050905090810190601f1680156102fe5780820380516001836020036101000a031916815260200191505b50838103825284818151815260200191508051906020019080838360005b8381101561033757808201518184015260208101905061031c565b50505050905090810190601f1680156103645780820380516001836020036101000a031916815260200191505b509550505050505060405180910390f35b34801561038157600080fd5b506103b6600480360381019080803573ffffffffffffffffffffffffffffffffffffffff169060200190929190505050611e32565b604051808215151515815260200191505060405180910390f35b3480156103dc57600080fd5b50610411600480360381019080803573ffffffffffffffffffffffffffffffffffffffff169060200190929190505050611f54565b6040518080602001806020018463ffffffff1663ffffffff168152602001838103835286818151815260200191508051906020019080838360005b8381101561046757808201518184015260208101905061044c565b50505050905090810190601f1680156104945780820380516001836020036101000a031916815260200191505b50838103825285818151815260200191508051906020019080838360005b838110156104cd5780820151818401526020810190506104b2565b50505050905090810190601f1680156104fa5780820380516001836020036101000a031916815260200191505b509550505050505060405180910390f35b34801561051757600080fd5b5061054c600480360381019080803573ffffffffffffffffffffffffffffffffffffffff16906020019092919050505061217c565b6040518080602001828103825283818151815260200191508051906020019080838360005b8381101561058c578082015181840152602081019050610571565b50505050905090810190601f1680156105b95780820380516001836020036101000a031916815260200191505b509250505060405180910390f35b3480156105d357600080fd5b50610608600480360381019080803573ffffffffffffffffffffffffffffffffffffffff16906020019092919050505061229e565b604051808215151515815260200191505060405180910390f35b34801561062e57600080fd5b506106376123c0565b604051808273ffffffffffffffffffffffffffffffffffffffff1673ffffffffffffffffffffffffffffffffffffffff16815260200191505060405180910390f35b34801561068557600080fd5b50610756600480360381019080803573ffffffffffffffffffffffffffffffffffffffff169060200190929190803590602001908201803590602001908080601f0160208091040260200160405190810160405280939291908181526020018383808284378201915050505050509192919290803563ffffffff169060200190929190803590602001908201803590602001908080601f01602080910402602001604051908101604052809392919081815260200183838082843782019150505050505091929192905050506123e6565b604051808215151515815260200191505060405180910390f35b34801561077c57600080fd5b506107b1600480360381019080803573ffffffffffffffffffffffffffffffffffffffff1690602001909291905050506125e1565b6040518080602001828103825283818151815260200191508051906020019080838360005b838110156107f15780820151818401526020810190506107d6565b50505050905090810190601f16801561081e5780820380516001836020036101000a031916815260200191505b509250505060405180910390f35b34801561083857600080fd5b5061086d600480360381019080803573ffffffffffffffffffffffffffffffffffffffff169060200190929190505050612703565b60405180806020018060200180602001861515151581526020018060200185810385528a818151815260200191508051906020019080838360005b838110156108c35780820151818401526020810190506108a8565b50505050905090810190601f1680156108f05780820380516001836020036101000a031916815260200191505b50858103845289818151815260200191508051906020019080838360005b8381101561092957808201518184015260208101905061090e565b50505050905090810190601f1680156109565780820380516001836020036101000a031916815260200191505b50858103835288818151815260200191508051906020019080838360005b8381101561098f578082015181840152602081019050610974565b50505050905090810190601f1680156109bc5780820380516001836020036101000a031916815260200191505b50858103825286818151815260200191508051906020019080838360005b838110156109f55780820151818401526020810190506109da565b50505050905090810190601f168015610a225780820380516001836020036101000a031916815260200191505b50995050505050505050505060405180910390f35b348015610a4357600080fd5b50610a4c612aaf565b005b348015610a5a57600080fd5b50610a8f600480360381019080803573ffffffffffffffffffffffffffffffffffffffff169060200190929190505050612bb1565b6040518080602001806020018463ffffffff1663ffffffff168152602001838103835286818151815260200191508051906020019080838360005b83811015610ae5578082015181840152602081019050610aca565b50505050905090810190601f168015610b125780820380516001836020036101000a031916815260200191505b50838103825285818151815260200191508051906020019080838360005b83811015610b4b578082015181840152602081019050610b30565b50505050905090810190601f168015610b785780820380516001836020036101000a031916815260200191505b509550505050505060405180910390f35b348015610b9557600080fd5b50610b9e612dd9565b604051808273ffffffffffffffffffffffffffffffffffffffff1673ffffffffffffffffffffffffffffffffffffffff16815260200191505060405180910390f35b348015610bec57600080fd5b50610cbd600480360381019080803573ffffffffffffffffffffffffffffffffffffffff169060200190929190803590602001908201803590602001908080601f0160208091040260200160405190810160405280939291908181526020018383808284378201915050505050509192919290803590602001908201803590602001908080601f0160208091040260200160405190810160405280939291908181526020018383808284378201915050505050509192919290803563ffffffff169060200190929190505050612dfe565b604051808215151515815260200191505060405180910390f35b348015610ce357600080fd5b50610db4600480360381019080803573ffffffffffffffffffffffffffffffffffffffff169060200190929190803590602001908201803590602001908080601f0160208091040260200160405190810160405280939291908181526020018383808284378201915050505050509192919290803590602001908201803590602001908080601f0160208091040260200160405190810160405280939291908181526020018383808284378201915050505050509192919290803563ffffffff169060200190929190505050612ff9565b604051808215151515815260200191505060405180910390f35b348015610dda57600080fd5b50610e0f600480360381019080803573ffffffffffffffffffffffffffffffffffffffff1690602001909291905050506131f4565b6040518080602001806020018463ffffffff1663ffffffff168152602001838103835286818151815260200191508051906020019080838360005b83811015610e65578082015181840152602081019050610e4a565b50505050905090810190601f168015610e925780820380516001836020036101000a031916815260200191505b50838103825285818151815260200191508051906020019080838360005b83811015610ecb578082015181840152602081019050610eb0565b50505050905090810190601f168015610ef85780820380516001836020036101000a031916815260200191505b509550505050505060405180910390f35b348015610f1557600080fd5b50610fb6600480360381019080803590602001908201803590602001908080601f0160208091040260200160405190810160405280939291908181526020018383808284378201915050505050509192919290803590602001908201803590602001908080601f016020809104026020016040519081016040528093929190818152602001838380828437820191505050505050919291929050505061341c565b604051808273ffffffffffffffffffffffffffffffffffffffff1673ffffffffffffffffffffffffffffffffffffffff16815260200191505060405180910390f35b34801561100457600080fd5b5061111b600480360381019080803573ffffffffffffffffffffffffffffffffffffffff169060200190929190803590602001908201803590602001908080601f0160208091040260200160405190810160405280939291908181526020018383808284378201915050505050509192919290803590602001908201803590602001908080601f0160208091040260200160405190810160405280939291908181526020018383808284378201915050505050509192919290803590602001908201803590602001908080601f0160208091040260200160405190810160405280939291908181526020018383808284378201915050505050509192919290803563ffffffff169060200190929190505050613620565b604051808215151515815260200191505060405180910390f35b34801561114157600080fd5b50611176600480360381019080803573ffffffffffffffffffffffffffffffffffffffff16906020019092919050505061385e565b604051808060200180602001806020018563ffffffff1663ffffffff168152602001848103845288818151815260200191508051906020019080838360005b838110156111d05780820151818401526020810190506111b5565b50505050905090810190601f1680156111fd5780820380516001836020036101000a031916815260200191505b50848103835287818151815260200191508051906020019080838360005b8381101561123657808201518184015260208101905061121b565b50505050905090810190601f1680156112635780820380516001836020036101000a031916815260200191505b50848103825286818151815260200191508051906020019080838360005b8381101561129c578082015181840152602081019050611281565b50505050905090810190601f1680156112c95780820380516001836020036101000a031916815260200191505b5097505050505050505060405180910390f35b3480156112e857600080fd5b5061131d600480360381019080803573ffffffffffffffffffffffffffffffffffffffff169060200190929190505050613b34565b6040518080602001806020018060200180602001806020018763ffffffff1663ffffffff16815260200186810386528c818151815260200191508051906020019080838360005b8381101561137f578082015181840152602081019050611364565b50505050905090810190601f1680156113ac5780820380516001836020036101000a031916815260200191505b5086810385528b818151815260200191508051906020019080838360005b838110156113e55780820151818401526020810190506113ca565b50505050905090810190601f1680156114125780820380516001836020036101000a031916815260200191505b5086810384528a818151815260200191508051906020019080838360005b8381101561144b578082015181840152602081019050611430565b50505050905090810190601f1680156114785780820380516001836020036101000a031916815260200191505b50868103835289818151815260200191508051906020019080838360005b838110156114b1578082015181840152602081019050611496565b50505050905090810190601f1680156114de5780820380516001836020036101000a031916815260200191505b50868103825288818151815260200191508051906020019080838360005b838110156115175780820151818401526020810190506114fc565b50505050905090810190601f1680156115445780820380516001836020036101000a031916815260200191505b509b50505050505050505050505060405180910390f35b34801561156757600080fd5b5061170a600480360381019080803573ffffffffffffffffffffffffffffffffffffffff169060200190929190803590602001908201803590602001908080601f0160208091040260200160405190810160405280939291908181526020018383808284378201915050505050509192919290803590602001908201803590602001908080601f0160208091040260200160405190810160405280939291908181526020018383808284378201915050505050509192919290803590602001908201803590602001908080601f0160208091040260200160405190810160405280939291908181526020018383808284378201915050505050509192919290803590602001908201803590602001908080601f0160208091040260200160405190810160405280939291908181526020018383808284378201915050505050509192919290803590602001908201803590602001908080601f0160208091040260200160405190810160405280939291908181526020018383808284378201915050505050509192919290803563ffffffff169060200190929190505050613f67565b604051808215151515815260200191505060405180910390f35b34801561173057600080fd5b50611765600480360381019080803573ffffffffffffffffffffffffffffffffffffffff16906020019092919050505061422b565b604051808060200180602001838103835285818151815260200191508051906020019080838360005b838110156117a957808201518184015260208101905061178e565b50505050905090810190601f1680156117d65780820380516001836020036101000a031916815260200191505b50838103825284818151815260200191508051906020019080838360005b8381101561180f5780820151818401526020810190506117f4565b50505050905090810190601f16801561183c5780820380516001836020036101000a031916815260200191505b5094505050505060405180910390f35b34801561185857600080fd5b5061188d600480360381019080803573ffffffffffffffffffffffffffffffffffffffff169060200190929190505050614421565b005b34801561189b57600080fd5b506119f4600480360381019080803573ffffffffffffffffffffffffffffffffffffffff169060200190929190803590602001908201803590602001908080601f0160208091040260200160405190810160405280939291908181526020018383808284378201915050505050509192919290803590602001908201803590602001908080601f0160208091040260200160405190810160405280939291908181526020018383808284378201915050505050509192919290803590602001908201803590602001908080601f0160208091040260200160405190810160405280939291908181526020018383808284378201915050505050509192919290803515159060200190929190803590602001908201803590602001908080601f0160208091040260200160405190810160405280939291908181526020018383808284378201915050505050509192919290505050614576565b604051808215151515815260200191505060405180910390f35b600033600160006101000a81548173ffffffffffffffffffffffffffffffffffffffff021916908373ffffffffffffffffffffffffffffffffffffffff1602179055508360206000019080519060200190611a6a92919061476f565b508260206001019080519060200190611a8492919061476f565b5081602060020160006101000a81548163ffffffff021916908363ffffffff1602179055506020600960008773ffffffffffffffffffffffffffffffffffffffff1673ffffffffffffffffffffffffffffffffffffffff16815260200190815260200160002060008201816000019080546001816001161561010002031660029004611b119291906147ef565b5060018201816001019080546001816001161561010002031660029004611b399291906147ef565b506002820160009054906101000a900463ffffffff168160020160006101000a81548163ffffffff021916908363ffffffff1602179055509050506040805190810160405280601081526020017f4449535452494255544f525f53454e4400000000000000000000000000000000815250600c60008773ffffffffffffffffffffffffffffffffffffffff1673ffffffffffffffffffffffffffffffffffffffff1681526020019081526020016000209080519060200190611bfc92919061476f565b5060019050949350505050565b606060006060611c17614876565b33600160006101000a81548173ffffffffffffffffffffffffffffffffffffffff021916908373ffffffffffffffffffffffffffffffffffffffff160217905550600b60008673ffffffffffffffffffffffffffffffffffffffff1673ffffffffffffffffffffffffffffffffffffffff16815260200190815260200160002060606040519081016040529081600082018054600181600116156101000203166002900480601f016020809104026020016040519081016040528092919081815260200182805460018160011615610100020316600290048015611d3c5780601f10611d1157610100808354040283529160200191611d3c565b820191906000526020600020905b815481529060010190602001808311611d1f57829003601f168201915b505050505081526020016001820160009054906101000a900463ffffffff1663ffffffff1663ffffffff168152602001600282018054600181600116156101000203166002900480601f016020809104026020016040519081016040528092919081815260200182805460018160011615610100020316600290048015611e045780601f10611dd957610100808354040283529160200191611e04565b820191906000526020600020905b815481529060010190602001808311611de757829003601f168201915b5050505050815250509050806000015181602001518260400151829250809050935093509350509193909250565b60008060009054906101000a900473ffffffffffffffffffffffffffffffffffffffff1673ffffffffffffffffffffffffffffffffffffffff163373ffffffffffffffffffffffffffffffffffffffff16141515611e8f57600080fd5b6000600460008473ffffffffffffffffffffffffffffffffffffffff1673ffffffffffffffffffffffffffffffffffffffff16815260200190815260200160002060006101000a81548160ff021916908360ff1602179055507f9e8ca6ff03906e81e8a6a03d4f96b7edb0b97f0ed9d07ef1b699fff63438549682604051808273ffffffffffffffffffffffffffffffffffffffff1673ffffffffffffffffffffffffffffffffffffffff16815260200191505060405180910390a160019050919050565b6060806000611f6161489e565b33600160006101000a81548173ffffffffffffffffffffffffffffffffffffffff021916908373ffffffffffffffffffffffffffffffffffffffff160217905550600760008673ffffffffffffffffffffffffffffffffffffffff1673ffffffffffffffffffffffffffffffffffffffff16815260200190815260200160002060606040519081016040529081600082018054600181600116156101000203166002900480601f0160208091040260200160405190810160405280929190818152602001828054600181600116156101000203166002900480156120865780601f1061205b57610100808354040283529160200191612086565b820191906000526020600020905b81548152906001019060200180831161206957829003601f168201915b50505050508152602001600182018054600181600116156101000203166002900480601f0160208091040260200160405190810160405280929190818152602001828054600181600116156101000203166002900480156121285780601f106120fd57610100808354040283529160200191612128565b820191906000526020600020905b81548152906001019060200180831161210b57829003601f168201915b505050505081526020016002820160009054906101000a900463ffffffff1663ffffffff1663ffffffff16815250509050806000015181602001518260400151829250819150935093509350509193909250565b606033600160006101000a81548173ffffffffffffffffffffffffffffffffffffffff021916908373ffffffffffffffffffffffffffffffffffffffff160217905550600360008373ffffffffffffffffffffffffffffffffffffffff1673ffffffffffffffffffffffffffffffffffffffff1681526020019081526020016000208054600181600116156101000203166002900480601f0160208091040260200160405190810160405280929190818152602001828054600181600116156101000203166002900480156122925780601f1061226757610100808354040283529160200191612292565b820191906000526020600020905b81548152906001019060200180831161227557829003601f168201915b50505050509050919050565b60008060009054906101000a900473ffffffffffffffffffffffffffffffffffffffff1673ffffffffffffffffffffffffffffffffffffffff163373ffffffffffffffffffffffffffffffffffffffff161415156122fb57600080fd5b6001600460008473ffffffffffffffffffffffffffffffffffffffff1673ffffffffffffffffffffffffffffffffffffffff16815260200190815260200160002060006101000a81548160ff021916908360ff1602179055507f8afeca650897be3183b7c0d24eba96a1b990f75c4bd74a0cfb2c0a71aec48e6182604051808273ffffffffffffffffffffffffffffffffffffffff1673ffffffffffffffffffffffffffffffffffffffff16815260200191505060405180910390a160019050919050565b600160009054906101000a900473ffffffffffffffffffffffffffffffffffffffff1681565b600033600160006101000a81548173ffffffffffffffffffffffffffffffffffffffff021916908373ffffffffffffffffffffffffffffffffffffffff160217905550836026600001908051906020019061244292919061476f565b5082602660010160006101000a81548163ffffffff021916908363ffffffff160217905550816026600201908051906020019061248092919061476f565b506026600b60008773ffffffffffffffffffffffffffffffffffffffff1673ffffffffffffffffffffffffffffffffffffffff168152602001908152602001600020600082018160000190805460018160011615610100020316600290046124e99291906147ef565b506001820160009054906101000a900463ffffffff168160010160006101000a81548163ffffffff021916908363ffffffff160217905550600282018160020190805460018160011615610100020316600290046125489291906147ef565b509050506040805190810160405280600481526020017f444f4e4500000000000000000000000000000000000000000000000000000000815250600c60008773ffffffffffffffffffffffffffffffffffffffff1673ffffffffffffffffffffffffffffffffffffffff16815260200190815260200160002090805190602001906125d492919061476f565b5060019050949350505050565b606033600160006101000a81548173ffffffffffffffffffffffffffffffffffffffff021916908373ffffffffffffffffffffffffffffffffffffffff160217905550600c60008373ffffffffffffffffffffffffffffffffffffffff1673ffffffffffffffffffffffffffffffffffffffff1681526020019081526020016000208054600181600116156101000203166002900480601f0160208091040260200160405190810160405280929190818152602001828054600181600116156101000203166002900480156126f75780601f106126cc576101008083540402835291602001916126f7565b820191906000526020600020905b8154815290600101906020018083116126da57829003601f168201915b50505050509050919050565b6060806060600060606127146148c6565b33600160006101000a81548173ffffffffffffffffffffffffffffffffffffffff021916908373ffffffffffffffffffffffffffffffffffffffff160217905550600260008873ffffffffffffffffffffffffffffffffffffffff1673ffffffffffffffffffffffffffffffffffffffff16815260200190815260200160002060806040519081016040529081600082018054600181600116156101000203166002900480601f0160208091040260200160405190810160405280929190818152602001828054600181600116156101000203166002900480156128395780601f1061280e57610100808354040283529160200191612839565b820191906000526020600020905b81548152906001019060200180831161281c57829003601f168201915b50505050508152602001600182018054600181600116156101000203166002900480601f0160208091040260200160405190810160405280929190818152602001828054600181600116156101000203166002900480156128db5780601f106128b0576101008083540402835291602001916128db565b820191906000526020600020905b8154815290600101906020018083116128be57829003601f168201915b505050505081526020016002820160009054906101000a900460ff16151515158152602001600382018054600181600116156101000203166002900480601f0160208091040260200160405190810160405280929190818152602001828054600181600116156101000203166002900480156129985780601f1061296d57610100808354040283529160200191612998565b820191906000526020600020905b81548152906001019060200180831161297b57829003601f168201915b505050505081525050905080600001518160200151600360008a73ffffffffffffffffffffffffffffffffffffffff1673ffffffffffffffffffffffffffffffffffffffff16815260200190815260200160002083604001518460600151849450839350828054600181600116156101000203166002900480601f016020809104026020016040519081016040528092919081815260200182805460018160011615610100020316600290048015612a915780601f10612a6657610100808354040283529160200191612a91565b820191906000526020600020905b815481529060010190602001808311612a7457829003601f168201915b50505050509250809050955095509550955095505091939590929450565b6000809054906101000a900473ffffffffffffffffffffffffffffffffffffffff1673ffffffffffffffffffffffffffffffffffffffff163373ffffffffffffffffffffffffffffffffffffffff16141515612b0a57600080fd5b6000809054906101000a900473ffffffffffffffffffffffffffffffffffffffff1673ffffffffffffffffffffffffffffffffffffffff167ff8df31144d9c2f0f6b59d69b8b98abd5459d07f2742c4df920b25aae33c6482060405160405180910390a260008060006101000a81548173ffffffffffffffffffffffffffffffffffffffff021916908373ffffffffffffffffffffffffffffffffffffffff160217905550565b6060806000612bbe6148f1565b33600160006101000a81548173ffffffffffffffffffffffffffffffffffffffff021916908373ffffffffffffffffffffffffffffffffffffffff160217905550600960008673ffffffffffffffffffffffffffffffffffffffff1673ffffffffffffffffffffffffffffffffffffffff16815260200190815260200160002060606040519081016040529081600082018054600181600116156101000203166002900480601f016020809104026020016040519081016040528092919081815260200182805460018160011615610100020316600290048015612ce35780601f10612cb857610100808354040283529160200191612ce3565b820191906000526020600020905b815481529060010190602001808311612cc657829003601f168201915b50505050508152602001600182018054600181600116156101000203166002900480601f016020809104026020016040519081016040528092919081815260200182805460018160011615610100020316600290048015612d855780601f10612d5a57610100808354040283529160200191612d85565b820191906000526020600020905b815481529060010190602001808311612d6857829003601f168201915b505050505081526020016002820160009054906101000a900463ffffffff1663ffffffff1663ffffffff16815250509050806000015181602001518260400151829250819150935093509350509193909250565b6000809054906101000a900473ffffffffffffffffffffffffffffffffffffffff1681565b600033600160006101000a81548173ffffffffffffffffffffffffffffffffffffffff021916908373ffffffffffffffffffffffffffffffffffffffff1602179055508360236000019080519060200190612e5a92919061476f565b508260236001019080519060200190612e7492919061476f565b5081602360020160006101000a81548163ffffffff021916908363ffffffff1602179055506023600a60008773ffffffffffffffffffffffffffffffffffffffff1673ffffffffffffffffffffffffffffffffffffffff16815260200190815260200160002060008201816000019080546001816001161561010002031660029004612f019291906147ef565b5060018201816001019080546001816001161561010002031660029004612f299291906147ef565b506002820160009054906101000a900463ffffffff168160020160006101000a81548163ffffffff021916908363ffffffff1602179055509050506040805190810160405280600981526020017f4452554753544f52450000000000000000000000000000000000000000000000815250600c60008773ffffffffffffffffffffffffffffffffffffffff1673ffffffffffffffffffffffffffffffffffffffff1681526020019081526020016000209080519060200190612fec92919061476f565b5060019050949350505050565b600033600160006101000a81548173ffffffffffffffffffffffffffffffffffffffff021916908373ffffffffffffffffffffffffffffffffffffffff160217905550836017600001908051906020019061305592919061476f565b50826017600101908051906020019061306f92919061476f565b5081601760020160006101000a81548163ffffffff021916908363ffffffff1602179055506017600760008773ffffffffffffffffffffffffffffffffffffffff1673ffffffffffffffffffffffffffffffffffffffff168152602001908152602001600020600082018160000190805460018160011615610100020316600290046130fc9291906147ef565b50600182018160010190805460018160011615610100020316600290046131249291906147ef565b506002820160009054906101000a900463ffffffff168160020160006101000a81548163ffffffff021916908363ffffffff1602179055509050506040805190810160405280600c81526020017f464143544f52595f53454e440000000000000000000000000000000000000000815250600c60008773ffffffffffffffffffffffffffffffffffffffff1673ffffffffffffffffffffffffffffffffffffffff16815260200190815260200160002090805190602001906131e792919061476f565b5060019050949350505050565b6060806000613201614919565b33600160006101000a81548173ffffffffffffffffffffffffffffffffffffffff021916908373ffffffffffffffffffffffffffffffffffffffff160217905550600a60008673ffffffffffffffffffffffffffffffffffffffff1673ffffffffffffffffffffffffffffffffffffffff16815260200190815260200160002060606040519081016040529081600082018054600181600116156101000203166002900480601f0160208091040260200160405190810160405280929190818152602001828054600181600116156101000203166002900480156133265780601f106132fb57610100808354040283529160200191613326565b820191906000526020600020905b81548152906001019060200180831161330957829003601f168201915b50505050508152602001600182018054600181600116156101000203166002900480601f0160208091040260200160405190810160405280929190818152602001828054600181600116156101000203166002900480156133c85780601f1061339d576101008083540402835291602001916133c8565b820191906000526020600020905b8154815290600101906020018083116133ab57829003601f168201915b505050505081526020016002820160009054906101000a900463ffffffff1663ffffffff1663ffffffff16815250509050806000015181602001518260400151829250819150935093509350509193909250565b600080600033600160006101000a81548173ffffffffffffffffffffffffffffffffffffffff021916908373ffffffffffffffffffffffffffffffffffffffff1602179055503342604051808373ffffffffffffffffffffffffffffffffffffffff1673ffffffffffffffffffffffffffffffffffffffff166c0100000000000000000000000002815260140182815260200192505050604051809103902060019004915081905084601160000190805190602001906134dd92919061476f565b5083601160010190805190602001906134f792919061476f565b506011600560008373ffffffffffffffffffffffffffffffffffffffff1673ffffffffffffffffffffffffffffffffffffffff168152602001908152602001600020600082018160000190805460018160011615610100020316600290046135609291906147ef565b50600182018160010190805460018160011615610100020316600290046135889291906147ef565b509050506040805190810160405280600881526020017f535550504c494552000000000000000000000000000000000000000000000000815250600c60008373ffffffffffffffffffffffffffffffffffffffff1673ffffffffffffffffffffffffffffffffffffffff168152602001908152602001600020908051906020019061361492919061476f565b50809250505092915050565b600033600160006101000a81548173ffffffffffffffffffffffffffffffffffffffff021916908373ffffffffffffffffffffffffffffffffffffffff160217905550846013600001908051906020019061367c92919061476f565b50836013600101908051906020019061369692919061476f565b5082601360020190805190602001906136b092919061476f565b5081601360030160006101000a81548163ffffffff021916908363ffffffff1602179055506013600660008873ffffffffffffffffffffffffffffffffffffffff1673ffffffffffffffffffffffffffffffffffffffff1681526020019081526020016000206000820181600001908054600181600116156101000203166002900461373d9291906147ef565b50600182018160010190805460018160011615610100020316600290046137659291906147ef565b506002820181600201908054600181600116156101000203166002900461378d9291906147ef565b506003820160009054906101000a900463ffffffff168160030160006101000a81548163ffffffff021916908363ffffffff1602179055509050506040805190810160405280600a81526020017f464143544f52595f494e00000000000000000000000000000000000000000000815250600c60008873ffffffffffffffffffffffffffffffffffffffff1673ffffffffffffffffffffffffffffffffffffffff168152602001908152602001600020908051906020019061385092919061476f565b506001905095945050505050565b6060806060600061386d614941565b33600160006101000a81548173ffffffffffffffffffffffffffffffffffffffff021916908373ffffffffffffffffffffffffffffffffffffffff160217905550600660008773ffffffffffffffffffffffffffffffffffffffff1673ffffffffffffffffffffffffffffffffffffffff16815260200190815260200160002060806040519081016040529081600082018054600181600116156101000203166002900480601f0160208091040260200160405190810160405280929190818152602001828054600181600116156101000203166002900480156139925780601f1061396757610100808354040283529160200191613992565b820191906000526020600020905b81548152906001019060200180831161397557829003601f168201915b50505050508152602001600182018054600181600116156101000203166002900480601f016020809104026020016040519081016040528092919081815260200182805460018160011615610100020316600290048015613a345780601f10613a0957610100808354040283529160200191613a34565b820191906000526020600020905b815481529060010190602001808311613a1757829003601f168201915b50505050508152602001600282018054600181600116156101000203166002900480601f016020809104026020016040519081016040528092919081815260200182805460018160011615610100020316600290048015613ad65780601f10613aab57610100808354040283529160200191613ad6565b820191906000526020600020905b815481529060010190602001808311613ab957829003601f168201915b505050505081526020016003820160009054906101000a900463ffffffff1663ffffffff1663ffffffff1681525050905080600001518160200151826040015183606001518393508292508191509450945094509450509193509193565b60608060608060606000613b46614970565b33600160006101000a81548173ffffffffffffffffffffffffffffffffffffffff021916908373ffffffffffffffffffffffffffffffffffffffff160217905550600860008973ffffffffffffffffffffffffffffffffffffffff1673ffffffffffffffffffffffffffffffffffffffff16815260200190815260200160002060c06040519081016040529081600082018054600181600116156101000203166002900480601f016020809104026020016040519081016040528092919081815260200182805460018160011615610100020316600290048015613c6b5780601f10613c4057610100808354040283529160200191613c6b565b820191906000526020600020905b815481529060010190602001808311613c4e57829003601f168201915b50505050508152602001600182018054600181600116156101000203166002900480601f016020809104026020016040519081016040528092919081815260200182805460018160011615610100020316600290048015613d0d5780601f10613ce257610100808354040283529160200191613d0d565b820191906000526020600020905b815481529060010190602001808311613cf057829003601f168201915b50505050508152602001600282018054600181600116156101000203166002900480601f016020809104026020016040519081016040528092919081815260200182805460018160011615610100020316600290048015613daf5780601f10613d8457610100808354040283529160200191613daf565b820191906000526020600020905b815481529060010190602001808311613d9257829003601f168201915b50505050508152602001600382018054600181600116156101000203166002900480601f016020809104026020016040519081016040528092919081815260200182805460018160011615610100020316600290048015613e515780601f10613e2657610100808354040283529160200191613e51565b820191906000526020600020905b815481529060010190602001808311613e3457829003601f168201915b50505050508152602001600482018054600181600116156101000203166002900480601f016020809104026020016040519081016040528092919081815260200182805460018160011615610100020316600290048015613ef35780601f10613ec857610100808354040283529160200191613ef3565b820191906000526020600020905b815481529060010190602001808311613ed657829003601f168201915b505050505081526020016005820160009054906101000a900463ffffffff1663ffffffff1663ffffffff16815250509050806000015181602001518260400151836060015184608001518560a001518595508494508393508292508191509650965096509650965096505091939550919395565b600033600160006101000a81548173ffffffffffffffffffffffffffffffffffffffff021916908373ffffffffffffffffffffffffffffffffffffffff16021790555086601a6000019080519060200190613fc392919061476f565b5085601a6001019080519060200190613fdd92919061476f565b5084601a6002019080519060200190613ff792919061476f565b5083601a600301908051906020019061401192919061476f565b5082601a600401908051906020019061402b92919061476f565b5081601a60050160006101000a81548163ffffffff021916908363ffffffff160217905550601a600860008a73ffffffffffffffffffffffffffffffffffffffff1673ffffffffffffffffffffffffffffffffffffffff168152602001908152602001600020600082018160000190805460018160011615610100020316600290046140b89291906147ef565b50600182018160010190805460018160011615610100020316600290046140e09291906147ef565b50600282018160020190805460018160011615610100020316600290046141089291906147ef565b50600382018160030190805460018160011615610100020316600290046141309291906147ef565b50600482018160040190805460018160011615610100020316600290046141589291906147ef565b506005820160009054906101000a900463ffffffff168160050160006101000a81548163ffffffff021916908363ffffffff1602179055509050506040805190810160405280600e81526020017f4449535452494255544f525f494e000000000000000000000000000000000000815250600c60008a73ffffffffffffffffffffffffffffffffffffffff1673ffffffffffffffffffffffffffffffffffffffff168152602001908152602001600020908051906020019061421b92919061476f565b5060019050979650505050505050565b6060806142366149ad565b33600160006101000a81548173ffffffffffffffffffffffffffffffffffffffff021916908373ffffffffffffffffffffffffffffffffffffffff160217905550600560008573ffffffffffffffffffffffffffffffffffffffff1673ffffffffffffffffffffffffffffffffffffffff168152602001908152602001600020604080519081016040529081600082018054600181600116156101000203166002900480601f01602080910402602001604051908101604052809291908181526020018280546001816001161561010002031660029004801561435a5780601f1061432f5761010080835404028352916020019161435a565b820191906000526020600020905b81548152906001019060200180831161433d57829003601f168201915b50505050508152602001600182018054600181600116156101000203166002900480601f0160208091040260200160405190810160405280929190818152602001828054600181600116156101000203166002900480156143fc5780601f106143d1576101008083540402835291602001916143fc565b820191906000526020600020905b8154815290600101906020018083116143df57829003601f168201915b5050505050815250509050806000015181602001518191508090509250925050915091565b6000809054906101000a900473ffffffffffffffffffffffffffffffffffffffff1673ffffffffffffffffffffffffffffffffffffffff163373ffffffffffffffffffffffffffffffffffffffff1614151561447c57600080fd5b600073ffffffffffffffffffffffffffffffffffffffff168173ffffffffffffffffffffffffffffffffffffffff16141515156144b857600080fd5b8073ffffffffffffffffffffffffffffffffffffffff166000809054906101000a900473ffffffffffffffffffffffffffffffffffffffff1673ffffffffffffffffffffffffffffffffffffffff167f8be0079c531659141344cd1fd0a4f28419497f9722a3daafe3b4186f6b6457e060405160405180910390a3806000806101000a81548173ffffffffffffffffffffffffffffffffffffffff021916908373ffffffffffffffffffffffffffffffffffffffff16021790555050565b600033600160006101000a81548173ffffffffffffffffffffffffffffffffffffffff021916908373ffffffffffffffffffffffffffffffffffffffff16021790555085600d60000190805190602001906145d292919061476f565b5084600d60010190805190602001906145ec92919061476f565b5082600d60020160006101000a81548160ff02191690831515021790555081600d600301908051906020019061462392919061476f565b50600d600260008973ffffffffffffffffffffffffffffffffffffffff1673ffffffffffffffffffffffffffffffffffffffff1681526020019081526020016000206000820181600001908054600181600116156101000203166002900461468c9291906147ef565b50600182018160010190805460018160011615610100020316600290046146b49291906147ef565b506002820160009054906101000a900460ff168160020160006101000a81548160ff021916908315150217905550600382018160030190805460018160011615610100020316600290046147099291906147ef565b5090505083600360008973ffffffffffffffffffffffffffffffffffffffff1673ffffffffffffffffffffffffffffffffffffffff168152602001908152602001600020908051906020019061476092919061476f565b50600190509695505050505050565b828054600181600116156101000203166002900490600052602060002090601f016020900481019282601f106147b057805160ff19168380011785556147de565b828001600101855582156147de579182015b828111156147dd5782518255916020019190600101906147c2565b5b5090506147eb91906149c7565b5090565b828054600181600116156101000203166002900490600052602060002090601f016020900481019282601f106148285780548555614865565b8280016001018555821561486557600052602060002091601f016020900482015b82811115614864578254825591600101919060010190614849565b5b50905061487291906149c7565b5090565b60606040519081016040528060608152602001600063ffffffff168152602001606081525090565b6060604051908101604052806060815260200160608152602001600063ffffffff1681525090565b6080604051908101604052806060815260200160608152602001600015158152602001606081525090565b6060604051908101604052806060815260200160608152602001600063ffffffff1681525090565b6060604051908101604052806060815260200160608152602001600063ffffffff1681525090565b608060405190810160405280606081526020016060815260200160608152602001600063ffffffff1681525090565b60c0604051908101604052806060815260200160608152602001606081526020016060815260200160608152602001600063ffffffff1681525090565b604080519081016040528060608152602001606081525090565b6149e991905b808211156149e55760008160009055506001016149cd565b5090565b905600a165627a7a723058200ef90f866604af8b0610b01ffbcf91438b8e4c091fc251a2cffb7572607de1ac0029",
  "source": "pragma solidity ^0.4.23 ;\r\n\r\nimport \"./SupplyChainStorageOwnable.sol\";\r\n\r\ncontract SupplyChainStorage is SupplyChainStorageOwnable {\r\n    \r\n    address public lastAccess;\r\n    constructor() public {\r\n        authorizedCaller[msg.sender] = 1;\r\n        emit AuthorizedCaller(msg.sender);\r\n    }\r\n    \r\n    /* Events */\r\n    event AuthorizedCaller(address caller);\r\n    event DeAuthorizedCaller(address caller);\r\n    \r\n    /* Modifiers */\r\n    \r\n    modifier onlyAuthCaller(){\r\n        lastAccess = msg.sender;\r\n        // require(authorizedCaller[msg.sender] == 1);\r\n        _;\r\n    }\r\n    \r\n    /* User Related */\r\n    struct user {\r\n        string  name;\r\n        string  contactNo;\r\n        bool    isActive;\r\n        string  profileHash;\r\n    } \r\n    \r\n    mapping(address => user)    userDetails;\r\n    mapping(address => string)  userRole;\r\n    \r\n    /* Caller Mapping */\r\n    mapping(address => uint8) authorizedCaller;\r\n    \r\n    /* authorize caller */\r\n    function authorizeCaller(address _caller) public onlyOwner returns(bool) \r\n    {\r\n        authorizedCaller[_caller] = 1;\r\n        emit AuthorizedCaller(_caller);\r\n        return true;\r\n    }\r\n    \r\n    /* deauthorize caller */\r\n    function deAuthorizeCaller(address _caller) public onlyOwner returns(bool) \r\n    {\r\n        authorizedCaller[_caller] = 0;\r\n        emit DeAuthorizedCaller(_caller);\r\n        return true;\r\n    }\r\n    \r\n    /*User Roles\r\n        ADMIN,\r\n        SUPPLIER,\r\n        FACTORY,\r\n        DISTRIBUTOR,\r\n        DRUGSTORE\r\n    */\r\n    \r\n    /* Process Related */\r\n    // basicDetails yg pertama diisi admin\r\n    struct basicDetails {\r\n        string registrationNo;\r\n        string drugName;\r\n    }\r\n\r\n    struct supplier{\r\n        string sendDate;\r\n        string factoryName;\r\n        string itemName;\r\n        uint32 quantity;\r\n    }\r\n\r\n    struct factoryIn{\r\n        string receiveDate;\r\n        string itemName;\r\n        uint32 quantity;\r\n    }   \r\n\r\n    struct factorySend{\r\n        string sendDate;\r\n        string drugName;\r\n        string productionNumber;\r\n        string productionDate;\r\n        string expiredDate;\r\n        uint32 quantity;\r\n    }\r\n\r\n    struct distributorIn{\r\n        string receiveDate;\r\n        string drugName;\r\n        uint32 quantity;\r\n    }\r\n\r\n    struct distributorSend{\r\n        string sendDate;\r\n        string drugStoreName;\r\n        uint32 quantity;\r\n    }\r\n\r\n    struct drugStore{\r\n        string receiveDate;\r\n        uint32 quantity;\r\n        string additionalInfo;\r\n    }\r\n\r\n    mapping (address => basicDetails)   \tbatchBasicDetails;\r\n    mapping (address => supplier)       \tbatchSupplier;\r\n    mapping (address => factoryIn)       \tbatchFactoryIn;\r\n    mapping (address => factorySend)     \tbatchFactorySend;\r\n    mapping (address => distributorIn)\t\tbatchDistributorIn;\r\n\tmapping (address => distributorSend)\tbatchDistributorSend;\r\n\tmapping (address => drugStore)\t\t\tbatchDrugStore;\r\n    mapping (address => string)         \tnextAction;\r\n  \r\n    /*Initialize struct pointer*/\r\n\tuser\t\t\tuserDetail;\r\n\tbasicDetails\tbasicDetailsData;\r\n\tsupplier\t\tsupplierData;\r\n\tfactoryIn\t\tfactoryInData;\r\n\tfactorySend\t\tfactorySendData;\r\n\tdistributorIn\tdistributorInData;\r\n\tdistributorSend\tdistributorSendData;\r\n\tdrugStore\t\tdrugStoreData;\r\n\r\n    /* Get User Role */\r\n    function getUserRole(address _userAddress) public onlyAuthCaller view returns(string){\r\n        return userRole[_userAddress];\r\n    }\r\n    \r\n    /* Get Next Action  */    \r\n    function getNextAction(address _batchNo) public onlyAuthCaller view returns(string){\r\n        return nextAction[_batchNo];\r\n    }\r\n        \r\n    /*set user details*/\r\n    function setUser(address _userAddress,\r\n                     string _name, \r\n                     string _contactNo, \r\n                     string _role, \r\n                     bool _isActive,\r\n                     string _profileHash) public onlyAuthCaller returns(bool){\r\n        \r\n        /*store data into struct*/\r\n        userDetail.name \t\t= _name;\r\n        userDetail.contactNo \t= _contactNo;\r\n        userDetail.isActive \t= _isActive;\r\n        userDetail.profileHash \t= _profileHash;\r\n        \r\n        /*store data into mapping*/\r\n        userDetails[_userAddress] \t= userDetail;\r\n        userRole[_userAddress] \t\t= _role;\r\n        \r\n        return true;\r\n    }  \r\n    \r\n    /*get user details*/\r\n    function getUser(address _userAddress) public onlyAuthCaller view returns(string name, \r\n                                                                    string contactNo, \r\n                                                                    string role,\r\n                                                                    bool isActive, \r\n                                                                    string profileHash\r\n                                                                ){\r\n        /*Getting value from struct*/\r\n        user memory tmpData = userDetails[_userAddress];\r\n        \r\n        return (tmpData.name, tmpData.contactNo, userRole[_userAddress], tmpData.isActive, tmpData.profileHash);\r\n    }\r\n    \r\n    /*set batch basicDetails*/\r\n    function setBasicDetails(string _registrationNo, string _drugName) public onlyAuthCaller returns(address) {\r\n        uint tmpData = uint(keccak256(msg.sender, now));\r\n        address batchNo = address(tmpData);\r\n        \r\n        basicDetailsData.registrationNo = _registrationNo;\r\n        basicDetailsData.drugName = _drugName;\r\n\r\n        batchBasicDetails[batchNo] = basicDetailsData;\r\n        nextAction[batchNo] = 'SUPPLIER';   \r\n        \r\n        return batchNo;\r\n    }\r\n    \r\n    /*get batch basicDetails*/\r\n    function getBasicDetails(address _batchNo) public onlyAuthCaller view returns(string registrationNo, string drugName) {\r\n        basicDetails memory tmpData = batchBasicDetails[_batchNo];\r\n        return (tmpData.registrationNo,tmpData.drugName);\r\n    }\r\n\r\n\t/*set batch supplierData*/\r\n\tfunction setSupplierData(address batchNo, \r\n\t\t\t\t\t\t\t string _sendDate,\r\n\t\t\t\t\t\t\t string _factoryName, \r\n\t\t\t\t\t\t\t string _itemName, \r\n\t\t\t\t\t\t\t uint32 _quantity) public onlyAuthCaller returns(bool){\r\n\t\tsupplierData.sendDate\t\t= _sendDate;\r\n\t\tsupplierData.factoryName\t= _factoryName;\r\n\t\tsupplierData.itemName\t\t= _itemName;\r\n\t\tsupplierData.quantity\t\t= _quantity;\r\n\r\n\t\tbatchSupplier[batchNo] \t= supplierData;\r\n\t\tnextAction[batchNo]\t\t= 'FACTORY_IN';\r\n\r\n\t\treturn true;\r\n\t}\r\n\r\n\t/*get batch supplierData */\r\n\tfunction getSupplierData(address batchNo) public onlyAuthCaller view returns(string sendDate, \r\n\t\t\t\t\t\t\t\t\t\t\t\t\t\t\t\t\t\t\t\t string factoryName,\r\n\t\t\t\t\t\t\t\t\t\t\t\t\t\t\t\t\t\t\t\t string itemName,\r\n\t\t\t\t\t\t\t\t\t\t\t\t\t\t\t\t\t\t\t\t uint32 quantity){\r\n\t\tsupplier memory tmpData = batchSupplier[batchNo];\r\n\t\treturn(tmpData.sendDate, tmpData.factoryName, tmpData.itemName, tmpData.quantity);\r\n\t}\r\n\r\n\t/*set batch factoryInData*/\r\n\tfunction setFactoryInData(address batchNo,\r\n\t\t\t\t\t\t\t  string _receiveDate,\r\n\t\t\t\t\t\t\t  string _itemName,\r\n\t\t\t\t\t\t\t  uint32 _quantity) public onlyAuthCaller returns(bool){\r\n\t\tfactoryInData.receiveDate\t= _receiveDate;\r\n\t\tfactoryInData.itemName\t\t= _itemName;\r\n\t\tfactoryInData.quantity\t\t= _quantity;\r\n\r\n\t\tbatchFactoryIn[batchNo]\t= factoryInData;\r\n\t\tnextAction[batchNo]\t\t= 'FACTORY_SEND';\r\n\r\n\t\treturn true;\r\n\t}\r\n\r\n\t/*get batch factoryInData*/\r\n\tfunction getFactoryInData(address batchNo) public onlyAuthCaller view returns(string receiveDate,\r\n\t\t\t\t\t\t\t\t\t\t\t\t\t\t\t\t\t\t\t\t  string itemName,\r\n\t\t\t\t\t\t\t\t\t\t\t\t\t\t\t\t\t\t\t\t  uint32 quantity){\r\n\t\tfactoryIn memory tmpData = batchFactoryIn[batchNo];\r\n\t\treturn(tmpData.receiveDate, tmpData.itemName, tmpData.quantity);\r\n\t}\r\n\r\n\t/*set batch factorySendData*/\r\n\tfunction setFactorySendData(address batchNo,\r\n\t\t\t\t\t\t\t\tstring _sendDate,\r\n\t\t\t\t\t\t\t\tstring _drugName,\r\n\t\t\t\t\t\t\t\tstring _productionNumber,\r\n\t\t\t\t\t\t\t\tstring _productionDate,\r\n\t\t\t\t\t\t\t\tstring _expiredDate,\r\n\t\t\t\t\t\t\t\tuint32 _quantity) public onlyAuthCaller returns(bool){\r\n\t\tfactorySendData.sendDate\t\t\t= _sendDate;\r\n\t\tfactorySendData.drugName\t\t\t= _drugName;\r\n\t\tfactorySendData.productionNumber\t= _productionNumber;\r\n\t\tfactorySendData.productionDate\t\t= _productionDate;\r\n\t\tfactorySendData.expiredDate\t\t\t= _expiredDate;\r\n\t\tfactorySendData.quantity\t\t\t= _quantity;\r\n\r\n\t\tbatchFactorySend[batchNo]\t= factorySendData;\r\n\t\tnextAction[batchNo]\t\t\t= 'DISTRIBUTOR_IN';\r\n\r\n\t\treturn true;\r\n\t}\r\n    \r\n\t/*get batch factorySendData*/\r\n\tfunction getFactorySendData(address batchNo) public onlyAuthCaller view returns(string sendDate,\r\n\t\t\t\t\t\t\t\t\t\t\t\t\t\t\t\t\t\t\t\t\tstring drugName,\r\n\t\t\t\t\t\t\t\t\t\t\t\t\t\t\t\t\t\t\t\t\tstring productionNumber,\r\n\t\t\t\t\t\t\t\t\t\t\t\t\t\t\t\t\t\t\t\t\tstring productionDate,\r\n\t\t\t\t\t\t\t\t\t\t\t\t\t\t\t\t\t\t\t\t\tstring expiredDate,\r\n\t\t\t\t\t\t\t\t\t\t\t\t\t\t\t\t\t\t\t\t\tuint32 quantity){\r\n\t\tfactorySend memory tmpData = batchFactorySend[batchNo];\r\n\t\treturn(tmpData.sendDate, tmpData.drugName, tmpData.productionNumber, tmpData.productionDate, tmpData.expiredDate, tmpData.quantity);\r\n\t}\r\n\r\n\t/*set batch distributorInData*/\r\n\tfunction setDistributorInData(address batchNo,\r\n\t\t\t\t\t\t\t\t  string _receiveDate,\r\n\t\t\t\t\t\t\t\t  string _drugName,\r\n\t\t\t\t\t\t\t\t  uint32 _quantity) public onlyAuthCaller returns(bool){\r\n\t\tdistributorInData.receiveDate\t= _receiveDate;\r\n\t\tdistributorInData.drugName\t\t= _drugName;\r\n\t\tdistributorInData.quantity\t\t= _quantity;\r\n\r\n\t\tbatchDistributorIn[batchNo]\t= distributorInData;\r\n\t\tnextAction[batchNo]\t\t\t= 'DISTRIBUTOR_SEND';\r\n\r\n\t\treturn true;\r\n\t}\r\n\r\n\t/*get batch distributorInData*/\r\n\tfunction getDistributorInData(address batchNo) public onlyAuthCaller view returns(string receiveDate,\r\n\t\t\t\t\t\t\t\t\t\t\t\t\t\t\t\t\t\t\t\t\t  string drugName,\r\n\t\t\t\t\t\t\t\t\t\t\t\t\t\t\t\t\t\t\t\t\t  uint32 quantity){\r\n\t\tdistributorIn memory tmpData = batchDistributorIn[batchNo];\r\n\t\treturn(tmpData.receiveDate, tmpData.drugName, tmpData.quantity);\r\n\t}\r\n\r\n\t/*set batch distributorSendData*/\r\n\tfunction setDistributorSendData(address batchNo,\r\n\t\t\t\t\t\t\t\t\tstring _sendDate,\r\n\t\t\t\t\t\t\t\t\tstring _drugStoreName,\r\n\t\t\t\t\t\t\t\t\tuint32 _quantity) public onlyAuthCaller returns(bool){\r\n\t\tdistributorSendData.sendDate\t\t= _sendDate;\r\n\t\tdistributorSendData.drugStoreName\t= _drugStoreName;\r\n\t\tdistributorSendData.quantity\t\t= _quantity;\r\n\r\n\t\tbatchDistributorSend[batchNo]\t= distributorSendData;\r\n\t\tnextAction[batchNo]\t\t\t\t= 'DRUGSTORE';\t\r\n\r\n\t\treturn true;\r\n\t}\r\n\r\n\t/*get batch distributorSendData*/\r\n\tfunction getDistributorSendData(address batchNo) public onlyAuthCaller view returns(string sendDate,\r\n\t\t\t\t\t\t\t\t\t\t\t\t\t\t\t\t\t\t\t\t\t\tstring drugStoreName,\r\n\t\t\t\t\t\t\t\t\t\t\t\t\t\t\t\t\t\t\t\t\t\tuint32 quantity){\r\n\t\tdistributorSend memory tmpData = batchDistributorSend[batchNo];\r\n\t\treturn(tmpData.sendDate, tmpData.drugStoreName, tmpData.quantity);\r\n\t}\r\n\r\n\t/*set batch drugStoreData*/\r\n\tfunction setDrugStoreData(address batchNo,\r\n\t\t\t\t\t\t\t  string _receiveDate,\r\n\t\t\t\t\t\t\t  uint32 _quantity,\r\n\t\t\t\t\t\t\t  string _additionalInfo) public onlyAuthCaller returns(bool){\r\n\t\tdrugStoreData.receiveDate\t\t= _receiveDate;\r\n\t\tdrugStoreData.quantity\t\t\t= _quantity;\r\n\t\tdrugStoreData.additionalInfo\t= _additionalInfo;\r\n\r\n\t\tbatchDrugStore[batchNo]\t= drugStoreData;\r\n\t\tnextAction[batchNo]\t\t= 'DONE';\r\n\r\n\t\treturn true;\r\n\t}\r\n\r\n\t/*get batch drugStoreData*/\r\n\tfunction getDrugStoreData(address batchNo) public onlyAuthCaller view returns(string receiveDate,\r\n\t\t\t\t\t\t\t\t\t\t\t\t\t\t\t\t\t\t\t\t  uint32 quantity,\r\n\t\t\t\t\t\t\t\t\t\t\t\t\t\t\t\t\t\t\t\t  string additionalInfo) {\r\n\t \tdrugStore memory tmpData = batchDrugStore[batchNo];\r\n\t\treturn(tmpData.receiveDate, tmpData.quantity, tmpData.additionalInfo);\r\n\t}\r\n\r\n}    \r\n",
  "sourcePath": "D:\\xampp\\htdocs\\Proyek3\\drug-supplychain-ethereum\\contracts\\SupplyChainStorage.sol",
  "compiler": {
    "name": "solc",
    "version": "0.4.24+commit.e67f0147.Emscripten.clang"
  },
  "schemaVersion": "2.0.1",
  "updatedAt": "2018-12-10T14:26:58.642Z"
}